:020000040800F2
:2000000000A000209D220008091600080F160008151600081B16000821160008000000005A
:20002000000000000000000000000000271600083516000800000000431600085116000858
:20004000ED220008ED220008ED220008ED220008ED220008ED220008ED220008ED220008E8
:20006000ED220008ED220008ED220008ED22000861160008ED220008ED220008ED22000860
:20008000ED220008ED220008ED22000800000000000000000000000000000000ED22000804
:2000A000ED220008ED220008ED220008ED220008ED2200080000000000000000ED220008B6
:2000C000ED220008ED220008ED220008ED220008ED2200088116000801170008ED220008D7
:2000E000ED220008ED220008000000000000000000000000000000000000000000000000D2
:20010000000000000000000000000000000000000000000000000000ED22000800000000C8
:20012000ED220008ED220008ED220008ED220008ED2200080000000000000000000000004C
:20014000ED220008ED220008ED22000811170008ED220008ED220008ED220008ED220008CE
:20016000ED220008ED220008000000000000000000000000ED22000800000000000000003A
:20018000ED220008ED220008ED22000810B5054C237833B9044B13B10448AFF300800123D8
:2001A000237010BD4402002000000000D0B6000808B5034B1BB103490348AFF3008008BD96
:2001C0000000000048020020D0B6000880B485B000AFF860B9607A60FB68BA681A607B68E2
:2001E000013BBA681A44FB685A60FB681A68FB689A60FB681A68FB68DA60FB681A68FB681A
:200200001A6100BF1437BD465DF8047B704780B483B000AF78607B689A687B68DB689A42F6
:2002200001D1012300E0002318460C37BD465DF8047B704780B483B000AF78607B681A6843
:200240007B689A607B681A687B68DA607B681A687B681A6100BF0C37BD465DF8047B7047EC
:2002600080B582B000AF78600B46FB707B68DB68FA781A70786800F0C0F80346002B01D0E5
:20028000012300E0002318460837BD4680BD80B584B000AF78607B689B681B78FB737868A3
:2002A00000F0D4F8FB7B18461037BD4680BD80B584B000AFF860B9607A600BE0BB681B7823
:2002C0001946F868FFF7CCFFBB680133BB607B68013B7B607B68002BF0D10123184610379A
:2002E000BD4680BD80B58AB000AFF860B9607A6000237B620023FB610023BB61BB687B6198
:20030000F86800F05EF80023BB6137E0F868FFF7BEFF0346FB74BB68FA7C1A707B6A002BE3
:2003200006D1FB7CAA2B03D0FB7C552B00D025E07B6A002B07D0FB7CAA2B02D0FB7C552BFF
:2003400001D10123BB617B6A01337B62BB680133BB607B6A032B02D1FB7C87F8233097F865
:20036000233003337A6A9A4202DD0123FB610DE07B68013B7B607B68002B06D0F868FFF7B4
:2003800046FF0346002BC1D000E000BFFB69002B0FD17B68002B0CD000237B627B69BB601C
:2003A000F86800F01CF8BB69002B02D0F868FFF76EFFBB69002BA6D17B6A18462837BD468A
:2003C00080BD80B483B000AF78607B689A687B681A6100BF0C37BD465DF8047B704780B4EB
:2003E00083B000AF78607B681A697B689A6000BF0C37BD465DF8047B704780B582B000AF5A
:20040000786072B600BF7B68DB685A1C7B68DA607B68DA687B685B689A4203D97B681A687C
:200420007B68DA607B68DA687B689B689A4206D1786800F00BF862B600BF012302E062B619
:2004400000BF002318460837BD4680BD80B483B000AF786072B600BF7B689B685A1C7B68C9
:200460009A607B689A687B685B689A4203D97B681A687B689A6062B600BF002318460C3762
:20048000BD465DF8047B704780B489B000AF78607B68FB60FB6853E8003FBB60BB6843F04E
:2004A0001003FB617B68FA69BA617B617969BA6941E800233B613B69002BE9D100BF00BF9C
:2004C0002437BD465DF8047B704780B489B000AF78607B68FB60FB6853E8003FBB60BB68E6
:2004E00043F02003FB617B68FA69BA617B617969BA6941E800233B613B69002BE9D100BFD8
:2005000000BF2437BD465DF8047B704780B489B000AF78607B68FB60FB6853E8003FBB6009
:20052000BB6843F04003FB617B68FA69BA617B617969BA6941E800233B613B69002BE9D113
:2005400000BF00BF2437BD465DF8047B704780B489B000AF78607B68FB60FB6853E8003F25
:20056000BB60BB6843F08003FB617B68FA69BA617B617969BA6941E800233B613B69002B32
:20058000E9D100BF00BF2437BD465DF8047B704780B483B000AF786039607B683A689A6133
:2005A00000BF0C37BD465DF8047B704780B483B000AF786039607B683A689A6200BF0C37A1
:2005C000BD465DF8047B704780B500AF4FF4FA7208490948FFF7FAFD4FF4FA72074908481C
:2005E000FFF7F4FD0748FFF770FF0648FFF74CFF00BF80BD80040020740200208C020020ED
:20060000600200200038014080B582B000AF204B1B78002B0FD01F4B1B78002B0BD11C4B56
:2006200000221A701C4B1B6819461C4801F00CFE012000F075F91A4B1B78002B17D0184B7A
:2006400000221A701748FFF7E2FD0346002B0ED1632215491348FFF745FE78607B68002B0A
:2006600005D07B681A4610491048FFF720FE1048FFF7CDFD0346002B05D1064B1B78002B2C
:2006800001D100F06FF900BF0837BD4680BD00BF75060020740600207806002000380140E7
:2006A00088020020600200207C0600202C1700207402002080B400AF00BFBD465DF8047BFA
:2006C0007047000080B584B000AF786039600123FB603968786800F057F90346002B01D055
:2006E000022301E17B681B78AA2B08D13B681A4679687F48FFF7DBFD0023FB60F3E07B6822
:200700001B78552B40F0EF807B6801331B78012B40F0E9807748FFF78DFD7B6803331B78CD
:20072000072B2DDC002B15DCDDE0813B062B00F2DA8001A252F823F09F070008FF070008B0
:200740001B0800086D0800089B0800088D070008AF080008013B062B00F2C58001A252F85A
:2007600023F000BFC1070008E3070008370800085308000887080008E7080008CB080008D2
:20078000872B00F3B080812BCFDAACE07B6801331B78184600F0C4F80023FB60A3E01021BD
:2007A0005548FFF7F5FE08215348FFF7FFFE7B6801331B78184600F0B3F80023FB6092E069
:2007C00008214D48FFF7E4FE10214B48FFF7EEFE7B6801331B78184600F0A2F80023FB60CD
:2007E00081E04FF480714448FFF7D2FE7B6801331B78184600F094F80023FB6073E04FF47A
:2008000080713D48FFF7D2FE7B6801331B78184600F086F80023FB6065E04FF40071364831
:20082000FFF7B6FE7B6801331B78184600F078F80023FB6057E04FF400712F48FFF7B6FE1C
:200840007B6801331B78184600F06AF80023FB6049E002212848FFF7A9FE7B6801331B78BD
:20086000184600F05DF80023FB603CE002212248FFF78EFE7B6801331B78184600F050F8EC
:200880000023FB602FE01D4B01221A701C4B4FF416521A600023FB6025E0184B01221A7097
:2008A000174B4FF4E1321A600023FB601BE04FF400511448FFF76CFE7B6801331B78184635
:2008C00000F02EF80023FB600DE04FF400510D48FFF76CFE7B6801331B78184600F020F83E
:2008E0000023FB6000BFFB6818461037BD4680BD7402002060020020000400487506002074
:20090000780600200008004880B400AF034B00221A7000BFBD465DF8047B70477406002025
:2009200080B584B000AF0346FB7155233B72FB797B720123BB720023FB7207F1080304215B
:20094000184600F021F803463B7307F10803052219460348FFF7ABFC00BF1037BD4680BD82
:200960002C17002080B500AF054B01221A700548FFF7EDFD0348FFF7C9FD00BF80BD00BF44
:20098000740600200038014080B485B000AF786039600023FB720023FB600AE07B681A784E
:2009A000FB7A1344FB727B6801337B60FB680133FB60FA683B689A42F0DBFB7A5B42FB72EF
:2009C000FB7A18461437BD465DF8047B704780B483B000AF78607B6840221A6200BF0C37BA
:2009E000BD465DF8047B704780B489B000AF78607B68FB60FB6853E8003FBB60BB6823F009
:200A00004003FB617B68FA69BA617B617969BA6941E800233B613B69002BE9D100BF00BF06
:200A20002437BD465DF8047B704780B489B000AF78607B68FB60FB6853E8003FBB60BB6880
:200A400023F08003FB617B68FA69BA617B617969BA6941E800233B613B69002BE9D100BF32
:200A600000BF2437BD465DF8047B704780B483B000AF78607B689B8C9BB2DBB218460C375B
:200A8000BD465DF8047B704780B483B000AF78600B46FB70FB789AB27B681A8500BF0C37DB
:200AA000BD465DF8047B704780B584B000AF78607868FFF7DBFF0346FB73FB7B1946034831
:200AC000FFF7CEFB00BF1037BD4680BD6002002080B483B000AF7860044B01221A7000BFE6
:200AE0000C37BD465DF8047B704700BF8802002080B584B000AF78600B48FFF788FB0346B7
:200B0000002B03D07868FFF790FF09E00648FFF7BEFB0346FB73FB7B19467868FFF7B4FF77
:200B20001037BD4680BD00BF7402002080B582B000AF7860FFF7E8FE7868FFF748FF786812
:200B4000FFF752FF00BF0837BD4680BD80B400AF0A4B01221A700A4B1B8801339AB2084B60
:200B60001A80074B1B88B3F57A7F02D3044B00221A8000BFBD465DF8047B7047E206002010
:200B8000E006002080B485B000AF786039607B68FB600C4A3B6813441B781A46FB6813448B
:200BA0001B6808493A680A4412781146FA680A4443F00103136000BF1437BD465DF8047B55
:200BC000704700BF30B7000880B485B000AF786039607B68FB600C4A3B6813441B781A46A6
:200BE000FB6813441B6808493A680A4412781146FA680A4423F00103136000BF1437BD464F
:200C00005DF8047B704700BF30B7000880B487B000AFF860B9607A60FB687B610D4ABB687D
:200C200013441B781A467B6913445B681B0C1B040849BA680A44127811467A690A441146FC
:200C40007A6813434B6000BF1C37BD465DF8047B704700BF30B7000880B487B000AFF860F1
:200C6000B9607A60FB687B61074ABB6813441B781A467B6913441A467B68D36000BF1C37C1
:200C8000BD465DF8047B704730B7000880B487B000AFF860B9607A60FB687B61074ABB68BF
:200CA00013441B781A467B6913441A467B68936000BF1C37BD465DF8047B704730B70008EA
:200CC00080B485B000AF786039607B68FB600C4A3B6813441B781A46FB6813441B6808497C
:200CE0003A680A4412781146FA680A4443F00203136000BF1437BD465DF8047B704700BF71
:200D000030B7000880B483B000AF78607B681B6843F001027B681A6000BF0C37BD465DF8A3
:200D2000047B704780B483B000AF786039607B681A6A3B681A437B681A6200BF0C37BD462B
:200D40005DF8047B704780B483B000AF78607B68DB6843F480727B68DA6000BF0C37BD46A9
:200D60005DF8047B7047000080B582B000AFB3233B6000237B6013E0224A7B6813441B7837
:200D8000312B05D1204A7B681344C8221A7004E01D4A7B68134400221A707B6801337B60E6
:200DA0007A683B689A42E7D3174B002283F8B220164A01211648FFF769FF134B1A46012129
:200DC0001348FFF749FFB32201211148FFF71EFF4FF08040FFF7B7FF4FF08040FFF792FFE6
:200DE00001214FF08040FFF79DFF01210848FFF7C9FE01210648FFF763FF00BF0837BD4648
:200E000080BD00BF00000020E8060020340000400000024080B500AF0D4B1B78002B15D013
:200E20000B4B00221A70012210214FF0904001F057FD01210748FFF7C7FEB3220121054898
:200E4000FFF7E4FE01210348FFF79CFE00BF80BDE60600200000024080B400AF0A4B1B8898
:200E600001339AB2084B1A80074B1B88132B05D9054B00221A80054B01221A7000BFBD4629
:200E80005DF8047B704700BFE4060020E606002080B400AF044BDB681B0A03F007031846FD
:200EA000BD465DF8047B704700ED00E080B483B000AF0346FB7197F90730002B0BDBFB79C0
:200EC00003F01F02074997F907305B09012000FA02F241F8232000BF0C37BD465DF8047B1F
:200EE000704700BF00E100E080B483B000AF03463960FB7197F90730002B0ADB3B68DAB251
:200F00000C4997F907301201D2B20B4483F800230AE03B68DAB20849FB7903F00F03043B0F
:200F20001201D2B20B441A7600BF0C37BD465DF8047B704700E100E000ED00E080B489B0B0
:200F400000AFF860B9607A60FB6803F00703FB61FB69C3F10703042B28BF0423BB61FB69FC
:200F60000433062B02D9FB69033B00E000237B614FF0FF32BB6902FA03F3DA43BB681A408D
:200F80007B699A404FF0FF317B6901FA03F3D9437B680B40134318462437BD465DF8047B1F
:200FA0007047000080B485B000AF7860084B9A6C07497B6813438B64054B9A6C7B6813402D
:200FC000FB60FB6800BF1437BD465DF8047B70470010024080B500AF0120FFF7E3FFFFF796
:200FE00057FF0346002200211846FFF7A7FF034619460C20FFF778FF0C20FFF757FF00BF9D
:2010000080BD000080B58AB000AF07F1140300221A605A609A60DA601A613F4BDB6C3E4A08
:2010200043F00403D3643C4BDB6C03F004033B613B69394BDB6C384A43F08003D364364B7C
:20104000DB6C03F08003FB60FB68334BDB6C324A43F00103D364304BDB6C03F00103BB6092
:20106000BB682D4BDB6C2C4A43F00203D3642A4BDB6C03F002037B607B6800224FF4604131
:20108000264801F02DFC002210214FF0904001F027FC002246F61B31214801F021FC4FF4EE
:2010A00060437B610123BB610023FB6100233B6207F114031946194801F0A0FA10237B61C9
:2010C0000123BB610023FB6100233B6207F1140319464FF0904001F091FA46F61B337B6132
:2010E0000123BB610023FB6100233B6207F1140319460B4801F082FA04237B610023BB6101
:201100000023FB6107F114031946054801F076FA00BF2837BD4680BD001002400008004834
:201120000004004880B500AF1B4B1C4A1A601A4B1B4A5A60184B00229A60174B0122DA6077
:20114000154B00221A61144B00225A61124B00229A61114B0022DA610F4B00221A620E48D5
:2011600001F0D6FB0346002B01D000F01EF90021094801F05CFC0346002B01D000F015F963
:201180000021054801F09EFC0346002B01D000F00CF900BF80BD00BF9C070020005400400A
:2011A0005D3E302080B596B000AF786007F1440300221A605A609A60DA601A6107F11003F3
:2011C0003422002118460AF057FA7B681B681E4A934235D140233B6100237B6207F110033C
:2011E000184604F009F90346002B01D000F0DDF8164BDB6C154A43F00203D364134BDB6C76
:2012000003F00203FB60FB68C0237B641223BB640023FB6403233B6504237B6507F1440374
:2012200019460B4801F0EAF9084B9B6D074A43F400139365054B9B6D03F40013BB60BB689A
:2012400000BF5837BD4680BD00540040001002400004004880B483B000AF786039607B6864
:201260003A689A6100BF0C37BD465DF8047B704780B483B000AF786039607B683A689A6239
:2012800000BF0C37BD465DF8047B704780B500AF01F02DF800F03CF8FFF7B4FEFFF79AFE6A
:2012A00000F0E4FCFFF73EFF00F084F800F0DEFE00F056FF09F0AEFBFFF756FDFFF784F950
:2012C000104B1B78002B16D00E4B00221A700E4B1B88B3F5FA7F05D24FF400510B48FFF739
:2012E000B9FF04E04FF400510848FFF7C1FFFFF7E1F9FFF7B1FD09F0A9FCFFF785F9FFF73C
:2013000089FDDDE7E2060020E00600200004004880B596B000AF07F114034422002118460B
:201320000AF0AAF93B4600221A605A609A60DA601A614FF4007003F0ABF90346002B01D0FB
:2013400000F033F801237B614FF48033BB6102233B6403237B640323BB640923FB640223A2
:201360003B6502237B6507F11403184603F0F6F90346002B01D000F018F80F233B60032341
:201380007B600023BB600023FB6000233B613B460221184603F044FE0346002B01D000F08B
:2013A00004F800BF5837BD4680BD80B400AF72B600BFFEE780B500AF1B4B1C4A1A601A4B65
:2013C0004FF482725A60184B00229A60164B4FF44072DA60144B00221A61134B00225A61D6
:2013E000114B4FF400729A610F4B0022DA610E4B00221A620C4B00225A620B4B00229A628A
:20140000094B0722DA62084B00221A63064B08225A63054804F076F90346002B01D0FFF7FE
:20142000C4FF00BF80BD00BFF00700200030014080B58AB000AF786007F1140300221A6005
:201440005A609A60DA601A617B681B68174A934228D1174B1B6E164A43F480531366144B61
:201460001B6E03F480533B613B69114BDB6C104A43F00103D3640E4BDB6C03F00103FB607C
:20148000FB68E0237B610223BB610023FB6103233B6205237B6207F1140319464FF0904005
:2014A00001F0ACF800BF2837BD4680BD003001400010024080B483B000AF0F4B1B6E0E4A25
:2014C00043F0010313660C4B1B6E03F001037B607B68094B9B6D084A43F080539365064BCA
:2014E0009B6D03F080533B603B6800BF0C37BD465DF8047B704700BF0010024080B483B0D8
:2015000000AF78607B6820225A6000BF0C37BD465DF8047B704780B483B000AF78607B6804
:20152000DB6903F00803082B01D1012300E0002318460C37BD465DF8047B704780B483B0A7
:2015400000AF78607B68DB6903F01003102B01D1012300E0002318460C37BD465DF8047B2B
:20156000704780B483B000AF78607B68DB6903F02003202B01D1012300E0002318460C37A4
:20158000BD465DF8047B704780B483B000AF78607B68DB6903F04003402B01D1012300E031
:2015A000002318460C37BD465DF8047B704780B483B000AF78607B68DB6903F08003802BA3
:2015C00001D1012300E0002318460C37BD465DF8047B704780B483B000AF78607B680822E8
:2015E0001A6200BF0C37BD465DF8047B704780B483B000AF78607B6810221A6200BF0C375E
:20160000BD465DF8047B704780B400AFFEE780B400AFFEE780B400AFFEE780B400AFFEE71C
:2016200080B400AFFEE780B400AF00BFBD465DF8047B704780B400AF00BFBD465DF8047B39
:20164000704780B400AF00BFBD465DF8047B704780B500AF00F0A0FEFFF778FA00BF80BDCD
:2016600080B500AF0548FFF749FF002210214FF0904001F035F900BF80BD00BF000002407D
:2016800080B500AF1D48FFF76CFF0346002B02D01A48FFF709FA1948FFF750FF0346002BE5
:2016A0000ED01648FFF7A3FF1448FFF711FA1348FFF757FF0346002B02D01048FFF7F4F9D1
:2016C0000E48FFF728FF0346002B02D00B48FFF781FF0A48FFF76BFF0346002B02D0074841
:2016E000FFF706FA0548FFF74FFF0346002B02D00248FFF71BFA00BF80BD00BF0038014094
:2017000080B400AF00BFBD465DF8047B7047000080B500AF024801F05AFB00BF80BD00BF6A
:20172000A419002080B400AF064BD3F88830054A43F47003C2F8883000BFBD465DF8047B14
:20174000704700BF00ED00E080B487B000AFF860B9607A60FB687B610E4ABB6813441B783D
:201760001A467B6913441B6823F4804323F010030849BA680A44127811467A690A44114621
:201780007A6813430B6000BF1C37BD465DF8047B704700BF80B7000880B487B000AFF86096
:2017A000B9607A60FB687B610D4ABB6813441B781A467B6913441B6823F020020849BB68CC
:2017C0000B441B7819467B690B4419467B6813430B6000BF1C37BD465DF8047B704700BF33
:2017E00080B7000880B487B000AFF860B9607A60FB687B610D4ABB6813441B781A467B695E
:2018000013441B6823F040020849BB680B441B7819467B690B4419467B6813430B6000BFEF
:201820001C37BD465DF8047B704700BF80B7000880B487B000AFF860B9607A60FB687B6125
:201840000D4ABB6813441B781A467B6913441B6823F080020849BB680B441B7819467B69D8
:201860000B4419467B6813430B6000BF1C37BD465DF8047B704700BF80B7000880B487B00D
:2018800000AFF860B9607A60FB687B610D4ABB6813441B781A467B6913441B6823F44072C4
:2018A0000849BB680B441B7819467B690B4419467B6813430B6000BF1C37BD465DF8047B54
:2018C000704700BF80B7000880B487B000AFF860B9607A60FB687B610D4ABB6813441B784B
:2018E0001A467B6913441B6823F440620849BB680B441B7819467B690B4419467B68134391
:201900000B6000BF1C37BD465DF8047B704700BF80B7000880B487B000AFF860B9607A6059
:20192000FB687B610D4ABB6813441B781A467B6913441B6823F440520849BB680B441B78E7
:2019400019467B690B4419467B6813430B6000BF1C37BD465DF8047B704700BF80B7000854
:2019600080B489B000AFF860B9607A60FB68A8331A68BB689B000F2101FA03F3DB431A40E9
:20198000BB689B000F2101FA03F3BB61BB6993FAA3F37B617B69FB61FB69002B01D1202345
:2019A00003E0FB69B3FA83F3DBB219467B688B40F968A83113430B6000BF2437BD465DF8B6
:2019C000047B704780B483B000AF78607B681B6823F080027B681A6000BF0C37BD465DF831
:2019E000047B704780B485B000AF786039603B68012B28D03B68042B23D03B68102B1ED0D0
:201A00003B68402B19D03B68B3F5807F13D03B68B3F5806F0DD03B68B3F5805F07D03B68E7
:201A2000B3F5803F01D107230EE008230CE006230AE0052308E0042306E0032304E00223DF
:201A400002E0012300E00023FB737B6818331946FB7B0A4AD35C0B44BB60BB681A68FB7B04
:201A60000749CB5C194604238B401A43BB681A6000BF1437BD465DF8047B704788B70008C5
:201A800094B7000880B485B000AF786039603B68012B28D03B68042B23D03B68102B1ED012
:201AA0003B68402B19D03B68B3F5807F13D03B68B3F5806F0DD03B68B3F5805F07D03B6847
:201AC000B3F5803F01D107230EE008230CE006230AE0052308E0042306E0032304E002233F
:201AE00002E0012300E00023FB737B6818331946FB7B0A4AD35C0B44BB60BB681A68FB7B64
:201B00000749CB5C194608238B401A43BB681A6000BF1437BD465DF8047B704788B7000820
:201B200094B7000880B483B000AF78607B689B6823F480427B689A6000BF0C37BD465DF86E
:201B4000047B704780B483B000AF786039607B689B6823F4A03323F007033A681A437B68F9
:201B60009A6000BF0C37BD465DF8047B704780B483B000AF786039607B685B6823F0700229
:201B80003B681A437B685A6000BF0C37BD465DF8047B704780B483B000AF78607B689B6844
:201BA00023F080027B689A6000BF0C37BD465DF8047B704780B485B000AFF860B9607A60C0
:201BC0003B60FB689B6823F43F42B9687B6819433B680B431A43FB689A6000BF1437BD4654
:201BE0005DF8047B704780B483B000AF786039607B689B6823F008023B681A437B689A60F3
:201C000000BF0C37BD465DF8047B704780B485B000AF7860084BDA6C07497B681343CB64F3
:201C2000054BDA6C7B681340FB60FB6800BF1437BD465DF8047B70470010024080B485B0C7
:201C400000AF7860084B9A6D07497B6813438B65054B9A6D7B681340FB60FB6800BF1437D5
:201C6000BD465DF8047B70470010024080B594B000AF07F13C0300221A605A609A60DA609B
:201C80001A6107F11C0320220021184609F0F4FC3B1D00221A605A609A60DA601A615A61F0
:201CA0000120FFF7CBFF042201214648FFF758FE102201214348FFF747FD0022012141483B
:201CC000FFF728FE002201213E48FFF765FD002201213C48FFF786FD802201213948FFF74A
:201CE000A7FD4FF4807201213648FFF7C7FD002201213448FFF7E8FD0523BB8700233B64EA
:201D00009F237B640023BB6407F13C0319464FF0804004F0F9FA4FF08040FFF753FE0021FD
:201D20004FF08040FFF70EFF01214FF08040FFF7A9FE6023FB6100233B6200237B626423BD
:201D4000BB620023FB6207F11C031A4601214FF0804004F037FB01214FF08040FFF742FED1
:201D600000214FF08040FFF73EFF4FF08040FFF7D9FE0023002200214FF08040FFF71AFFD0
:201D800000214FF08040FFF7F2FE4FF08040FFF701FF0120FFF73AFF01237B600223BB60B9
:201DA0000023FB6000233B6100237B610123BB613B1D19464FF0904003F092FE00BF503718
:201DC000BD4680BD0000024080B400AF044BDB681B0A03F007031846BD465DF8047B7047FE
:201DE00000ED00E080B483B000AF0346FB7197F90730002B0BDBFB7903F01F02074997F90B
:201E000007305B09012000FA02F241F8232000BF0C37BD465DF8047B704700BF00E100E08C
:201E200080B483B000AF03463960FB7197F90730002B0ADB3B68DAB20C4997F90730120109
:201E4000D2B20B4483F800230AE03B68DAB20849FB7903F00F03043B1201D2B20B441A7679
:201E600000BF0C37BD465DF8047B704700E100E000ED00E080B489B000AFF860B9607A60DD
:201E8000FB6803F00703FB61FB69C3F10703042B28BF0423BB61FB690433062B02D9FB6900
:201EA000033B00E000237B614FF0FF32BB6902FA03F3DA43BB681A407B699A404FF0FF31B8
:201EC0007B6901FA03F3D9437B680B40134318462437BD465DF8047B704780B483B000AF30
:201EE00078607B681B6843F001027B681A6000BF0C37BD465DF8047B704780B483B000AF6B
:201F000078607B681B6823F001027B681A6000BF0C37BD465DF8047B704780B483B000AF6A
:201F2000786039607B685B6823F400423B681A437B685A6000BF0C37BD465DF8047B704704
:201F400080B487B000AFF860B9607A603B607B68B3F5004F1AD1BB685A003B685B081A44DB
:201F60003B68B2FBF3F39BB27B617A694FF6F07313403B617B695B089BB203F007033A6954
:201F800013433B61FB683A69DA600AE03B685A08BB681A443B68B2FBF3F39BB21A46FB6859
:201FA000DA6000BF1C37BD465DF8047B704780B483B000AF78607B685B6823F490427B68E7
:201FC0005A607B689B6823F02A027B689A6000BF0C37BD465DF8047B7047000080B485B04C
:201FE00000AF7860084BDA6C07497B681343CB64054BDA6C7B681340FB60FB6800BF143775
:020000040800F2
:20200000BD465DF8047B70470010024080B485B000AF7860084B9A6D07497B6813438B651D
:20202000054B9A6D7B681340FB60FB6800BF1437BD465DF8047B70470010024080B485B002
:2020400000AF7860084B1A6E07497B6813430B66054B1A6E7B681340FB60FB6800BF14374E
:20206000BD465DF8047B70470010024080B59AB000AF07F14C0300221A605A609A60DA6081
:202080001A615A619A6107F1340300221A605A609A60DA601A615A613B46342200211846CA
:2020A00009F0EAFA01233B6000237B603B46184603F0A2F90346002B01D0FFF776F94FF42C
:2020C0008040FFF7BBFF0120FFF788FF4FF4C0637B630223BB630323FB6300233B64002302
:2020E0007B640723BB6407F1340319464FF0904003F0F6FCFFF768FE0346002200211846F0
:20210000FFF7B8FE034619462520FFF789FE2520FFF768FE4FF4E133FB6400233B6500236C
:202120007B650023BB650C23FB6500233B6600237B6607F14C031946084804F087FC074869
:20214000FFF735FF4FF400410448FFF7E6FE0348FFF7C3FE00BF6837BD4680BD0038014092
:2021600080B59AB000AF07F14C0300221A605A609A60DA601A615A619A6107F134030022DE
:202180001A605A609A60DA601A615A613B4634220021184609F070FA02233B600023BB60EA
:2021A0003B46184603F028F90346002B01D0FFF7FCF84FF40030FFF729FF0120FFF70EFF48
:2021C0000C237B630223BB630323FB6300233B6400237B640723BB6407F1340319464FF051
:2021E000904003F07DFCFFF7EFFD0346002200211846FFF73FFE034619462620FFF710FEB2
:202200002620FFF7EFFD4FF4E133FB6400233B6500237B650023BB650C23FB6500233B6684
:2022200000237B6607F14C031946064804F00EFC0448FFF7BCFE0348FFF74FFE00BF6837C0
:20224000BD4680BD0044004080B584B000AF786039607B680F4A934204D1032003F088FDB0
:20226000F86007E07B680C4A934203D10C2003F07FFDF8607868FFF740FE3B680022F96810
:202280007868FFF75DFE7868FFF727FE00BF1037BD4680BD0038014000440040DFF834D0F4
:2022A000FFF740FA0C480D490D4A002302E0D458C4500433C4188C42F9D30A4A0A4C00232E
:2022C00001E013600432A242FBD309F0DDF9FEF7DDFFFEE700A000200000002044020020F7
:2022E000A8B7000844020020C01E0020FEE780B582B000AF0023FB71032000F03DF90F2011
:2023000000F00EF80346002B02D00123FB7101E0FFF7D0F8FB7918460837BD4680BD000001
:2023200080B584B000AF78600023FB73174B1B78002B23D0164B1A68144B1B7819464FF492
:202340007A73B3FBF1F3B2FBF3F3184600F049F90346002B0FD17B680F2B09D80022796886
:202360004FF0FF3000F013F90A4A7B68136007E00123FB7304E00123FB7301E00123FB73E7
:20238000FB7B18461037BD4680BD00BFBC000020B4000020B800002080B400AF064B1B78D4
:2023A0001A46064B1B681344044A136000BFBD465DF8047B704700BFBC000020540800206D
:2023C00080B400AF034B1B681846BD465DF8047B704700BF5408002080B485B000AF786032
:2023E0007B6803F00703FB600C4BDB68BB60BA684FF6FF031340BB60FB681A02BB6813431E
:2024000043F0BF6343F40033BB60044ABB68D36000BF1437BD465DF8047B704700ED00E0D9
:2024200080B400AF044BDB681B0A03F007031846BD465DF8047B704700ED00E080B483B0E5
:2024400000AF0346FB7197F90730002B0BDBFB7903F01F02074997F907305B09012000FA22
:2024600002F241F8232000BF0C37BD465DF8047B704700BF00E100E080B483B000AF03467D
:202480003960FB7197F90730002B0ADB3B68DAB20C4997F907301201D2B20B4483F8002391
:2024A0000AE03B68DAB20849FB7903F00F03043B1201D2B20B441A7600BF0C37BD465DF82A
:2024C000047B704700E100E000ED00E080B489B000AFF860B9607A60FB6803F00703FB6115
:2024E000FB69C3F10703042B28BF0423BB61FB690433062B02D9FB69033B00E000237B6139
:202500004FF0FF32BB6902FA03F3DA43BB681A407B699A404FF0FF317B6901FA03F3D9437D
:202520007B680B40134318462437BD465DF8047B7047000080B582B000AF78607B68013BC3
:20254000B3F1807F01D301230FE00A4A7B68013B53600F214FF0FF30FFF78EFF054B002238
:202560009A60044B07221A60002318460837BD4680BD00BF10E000E080B582B000AF7860F2
:202580007868FFF729FF00BF0837BD4680BD80B586B000AF0346B9607A60FB7300237B613C
:2025A000FFF73EFF78617A68B9687869FFF78EFF024697F90F3011461846FFF75DFF00BFCB
:2025C0001837BD4680BD80B582B000AF0346FB7197F907301846FFF731FF00BF0837BD4655
:2025E00080BD80B582B000AF78607868FFF7A2FF034618460837BD4680BD000080B487B0A8
:2026000000AF7860396000237B614EE13B681A6801217B6901FA03F31340FB60FB68002B14
:2026200000F040813B685B6803F00303012B05D03B685B6803F00303022B30D17B689B6816
:202640003B617B695B00032202FA03F3DB433A6913403B613B68DA687B695B0002FA03F3C2
:202660003A6913433B617B683A699A607B685B683B6101227B6902FA03F3DB433A691340F6
:202680003B613B685B681B0903F001027B6902FA03F33A6913433B617B683A695A603B68D0
:2026A0005B6803F00303032B17D07B68DB683B617B695B00032202FA03F3DB433A6913401D
:2026C0003B613B689A687B695B0002FA03F33A6913433B617B683A69DA603B685B6803F0DA
:2026E0000303022B23D17B69DA087B68083253F822303B617B6903F007039B000F2202FAEE
:2027000003F3DB433A6913403B613B681A697B6903F007039B0002FA03F33A6913433B61EA
:202720007B69DA087B680832396943F822107B681B683B617B695B00032202FA03F3DB4331
:202740003A6913403B613B685B6803F003027B695B0002FA03F33A6913433B617B683A693D
:202760001A603B685B6803F44033002B00F09A80554B1B6E544A43F001031366524B1B6E3D
:2027800003F00103BB60BB68504A7B699B08023352F823303B617B6903F003039B000F22CC
:2027A00002FA03F3DB433A6913403B617B68B3F1904F13D07B68464A93420DD07B68454A97
:2027C000934207D07B68444A934201D1032306E0072304E0022302E0012300E000237A690A
:2027E00002F00302920093403A6913433B6137497B699B0802333A6941F82320374B9B6808
:202800003B61FB68DB433A6913403B613B685B6803F48013002B03D03A69FB6813433B6123
:202820002E4A3B6993602D4BDB683B61FB68DB433A6913403B613B685B6803F40013002B84
:2028400003D03A69FB6813433B61244A3B69D360224B5B683B61FB68DB433A6913403B6189
:202860003B685B6803F40033002B03D03A69FB6813433B61194A3B695360184B1B683B6196
:20288000FB68DB433A6913403B613B685B6803F48033002B03D03A69FB6813433B610F4AC6
:2028A0003B6913607B6901337B613B681A687B6922FA03F3002B7FF4A9AE00BF00BF1C372C
:2028C000BD465DF8047B704700100240000001400004004800080048000C004800040140A2
:2028E00080B483B000AF78600B467B8013467B707B78002B03D07A887B689A6102E07A88A5
:202900007B689A6200BF0C37BD465DF8047B704780B582B000AF78607B68002B01D1012356
:2029200081E07B6893F84130DBB2002B06D17B68002283F840207868FEF734FC7B682422BA
:2029400083F841207B681B681A687B681B6822F001021A607B685A687B681B6822F07062CF
:202960001A617B681B689A687B681B6822F400429A607B68DB68012B07D17B689A687B68CA
:202980001B6842F400429A6006E07B689A687B681B6842F404429A607B68DB68022B04D173
:2029A0007B681B684FF400625A607B681B685B687A68126843F0007343F4004353607B6817
:2029C0001B68DA687B681B6822F40042DA607B681A697B685B6942EA03017B689B691A02FA
:2029E0007B681B680A43DA607B68D9697B681A6A7B681B680A431A607B681B681A687B6866
:202A00001B6842F001021A607B6800225A647B68202283F841207B6800221A637B68002239
:202A200083F84220002318460837BD4680BD80B483B000AF786039607B6893F84130DBB2C6
:202A4000202B38D17B6893F84030012B01D1022332E07B68012283F840207B68242283F88A
:202A600041207B681B681A687B681B6822F001021A607B681B681A687B681B6822F48052E2
:202A80001A607B681B6819687B681B683A680A431A607B681B681A687B681B6842F0010283
:202AA0001A607B68202283F841207B68002283F84020002300E0022318460C37BD465DF89A
:202AC000047B704780B485B000AF786039607B6893F84130DBB2202B39D17B6893F8403098
:202AE000012B01D1022333E07B68012283F840207B68242283F841207B681B681A687B68EF
:202B00001B6822F001021A607B681B681B68FB60FB6823F47063FB603B681B02FA6813433F
:202B2000FB607B681B68FA681A607B681B681A687B681B6842F001021A607B68202283F85B
:202B400041207B68002283F84020002300E0022318461437BD465DF8047B7047F0B58BB0F5
:202B600006AF78607B68002B01D1012309E17B6893F8AD32DBB2002B06D17B68002283F87E
:202B8000AC22786808F0BCF97B68032283F8AD227B681B68184603F0E7FF7B681B683B60EA
:202BA0007E686D4606F110040FCC0FC594E8030085E80300331D0ECB386803F0ADFF034622
:202BC000002B05D07B68022283F8AD220123D8E07B681B680021184603F0E1FF0023FB737F
:202BE0004DE0FB7B79685A1C13469B001344DB000B44053301221A70FB7B79685A1C13465B
:202C00009B001344DB000B440433FA7B1A70FA7BFB7B98B2796813469B001344DB000B44D7
:202C20003A3302461A80FB7B79685A1C13469B001344DB000B44073300221A70FA7B7968C7
:202C400013469B001344DB000B443C3300221A60FA7B796813469B001344DB000B444033B6
:202C600000221A60FA7B796813469B001344DB000B44443300221A60FB7B0133FB73FA7B4D
:202C80007B685B689A42ACD30023FB7344E0FA7B796813469B001344DB000B4403F26D133E
:202CA00000221A70FA7B796813469B001344DB000B4403F5B673FA7B1A70FA7B79681346CE
:202CC0009B001344DB000B4403F26F1300221A70FA7B796813469B001344DB000B4403F5F2
:202CE000BE7300221A60FA7B796813469B001344DB000B4403F5C07300221A60FA7B79681F
:202D000013469B001344DB000B4403F5C27300221A60FB7B0133FB73FA7B7B685B689A4266
:202D2000B5D37B681B683B607E686D4606F110040FCC0FC594E8030085E80300331D0ECB9F
:202D4000386803F039FF0346002B05D07B68022283F8AD22012314E07B68002283F828202E
:202D60007B68012283F8AD227B68DB69012B02D1786801F055FC7B681B68184606F045F9C3
:202D8000002318461437BD46F0BD80B582B000AF78607B6893F8AC32012B01D1022312E068
:202DA0007B68012283F8AC227B681B68184603F0C4FE7B681B68184606F010F97B68002283
:202DC00083F8AC22002318460837BD4680BD80B584B000AF78607B681B68184606F02AF9DD
:202DE000F860FB6803F40043002B03D0786800F03EFB10E1FB6803F48063002B13D07B68B8
:202E00001B68B3F844309AB27B681B6822F4806292B2A3F84420786808F029F90021786828
:202E200000F0FCF8F7E0FB6803F48043002B0CD07B681B68B3F844309AB27B681B6822F466
:202E4000804292B2A3F84420E5E0FB6803F40053002B0CD07B681B68B3F844309AB27B6840
:202E60001B6822F4005292B2A3F84420D3E0FB6803F48053002B34D07B681B68B3F8403094
:202E80009AB27B681B6822F0040292B2A3F840207B681B68B3F840309AB27B681B6822F0E4
:202EA000080292B2A3F840207B6893F8E432012B07D17B68002283F8E4220021786808F0C2
:202EC00087FB786808F00CF97B681B68B3F844309AB27B681B6822F4805292B2A3F8442031
:202EE00099E0FB6803F40063002B27D07B681B68B3F840309AB27B681B6842F0080292B2C7
:202F0000A3F840207B681B68B3F844309AB27B681B6822F4006292B2A3F844207B681B685E
:202F2000B3F840309AB27B681B6842F0040292B2A3F84020786808F0B9F86CE0FB6803F022
:202F40008003002B40D07B681B68B3F844309AB27B681B6822F0800292B2A3F844207B68C2
:202F600093F8E432002B2BD17B681B68B3F840309AB27B681B6842F0040292B2A3F84020DF
:202F80007B681B68B3F840309AB27B681B6842F0080292B2A3F840207B68012283F8E422FC
:202FA0007B681B68B3F854309BB29B0803F03C027B68C3F8E8220121786808F009FB2AE0AB
:202FC000786808F073F826E0FB6803F40073002B0FD07B681B68B3F844309AB27B681B689A
:202FE00022F4007292B2A3F84420786808F031F811E0FB6803F48073002B0CD07B681B685A
:20300000B3F844309AB27B681B6822F4807292B2A3F8442000BF1037BD4680BD80B582B0E7
:2030200000AF78600B46FB707B6893F8AC32012B01D1022313E07B68012283F8AC227B68B9
:20304000FA7883F828207B681B68FA781146184605F0B0FF7B68002283F8AC22002318463B
:203060000837BD4680BD80B584B000AF7860084611461A460346FB700B463B801346BB7098
:203080000023FB7297F90330002B0FDAFB7803F007035A1C13469B001344DB007A68134484
:2030A0000433FB60FB6801225A700FE0FB7803F0070213469B001344DB0003F5B4737A68A9
:2030C00013440433FB60FB6800225A70FB7803F00703DAB2FB681A703A88FB681A61FB68CC
:2030E000BA78DA70FB685B78002B04D0FB681B789AB2FB68DA81BB78022B02D1FB68002267
:203100001A717B6893F8AC32012B01D102230EE07B68012283F8AC227B681B68F968184653
:2031200003F06CFD7B68002283F8AC22FB7A18461037BD4680BD80B584B000AF78600B464A
:20314000FB7097F90330002B0FDAFB7803F007035A1C13469B001344DB007A6813440433B1
:20316000FB60FB6801225A700FE0FB7803F0070213469B001344DB0003F5B4737A681344C8
:203180000433FB60FB6800225A70FB7803F00703DAB2FB681A707B6893F8AC32012B01D11B
:2031A00002230EE07B68012283F8AC227B681B68F968184604F0DCF87B68002283F8AC2272
:2031C000002318461037BD4680BD80B586B000AFF8607A603B600B46FB72FB7A03F00702D1
:2031E00013469B001344DB0003F5B473FA68134404337B617B697A685A617B693A689A61BC
:203200007B690022DA617B6900225A70FB7A03F00703DAB27B691A70FB7A03F00703002B94
:2032200006D1FB681B687969184604F08EFA05E0FB681B687969184604F087FA0023184614
:203240001837BD4680BD80B483B000AF78600B46FB70FB7803F00702796813469B0013449A
:20326000DB000B4403F5C4731B6818460C37BD465DF8047B704780B586B000AFF8607A60F7
:203280003B600B46FB72FB7A03F007035A1C13469B001344DB00FA68134404337B617B6917
:2032A0007A685A617B693A689A617B69012283F824207B693A681A627B690022DA617B6903
:2032C00001225A70FB7A03F00703DAB27B691A70FB7A03F00703002B06D1FB681B68796959
:2032E000184604F032FA05E0FB681B687969184604F02BFA002318461837BD4680BD80B5E7
:2033000084B000AF78600B46FB70FB7803F007027B685B689A4201D901234EE097F9033056
:20332000002B0FDAFB7803F007035A1C13469B001344DB007A6813440433FB60FB6801221C
:203340005A700DE0FA7813469B001344DB0003F5B4737A6813440433FB60FB6800225A70E5
:20336000FB6801229A70FB7803F00703DAB2FB681A707B6893F8AC32012B01D102231CE069
:203380007B68012283F8AC227B681B68F968184605F011FDFB7803F00703002B08D17B685F
:2033A0001A687B6803F52D731946104605F052FE7B68002283F8AC22002318461037BD46FD
:2033C00080BD80B584B000AF78600B46FB70FB7803F00F027B685B689A4201D9012342E0EB
:2033E00097F90330002B0FDAFB7803F007035A1C13469B001344DB007A6813440433FB601F
:20340000FB6801225A700FE0FB7803F0070213469B001344DB0003F5B4737A681344043349
:20342000FB60FB6800225A70FB6800229A70FB7803F00703DAB2FB681A707B6893F8AC321E
:20344000012B01D102230EE07B68012283F8AC227B681B68F968184605F0FEFC7B680022F3
:2034600083F8AC22002318461037BD4680BD80B596B000AF7860A9E37B681B68B3F84430E8
:20348000A7F85630B7F85630DBB203F00F0387F8553097F85530002B40F06981B7F85630AE
:2034A00003F01003002B50D17B681B681B889BB223F4E14323F07003FB817B681A68FB893E
:2034C0006FEA43436FEA53439BB213807B682C33FB647B681B68B3F850309BB21A46FB6CF8
:2034E0001B78DB0013447A681268134403F202431B88C3F30902FB6CDA61FB6C5A69FB6C83
:20350000DB691A44FB6C5A610021786807F087FD7B6893F82830DBB2002B00F05783FB6CBC
:203520009B69002B40F052837B6893F82830DBB263F07F03DAB27B681B6892B2A3F84C20F2
:203540007B68002283F8282040E37B6803F5B673FB647B681B681B88A7F85230B7F85230C2
:2035600003F40063002B32D07B681B68B3F850309BB21A46FB6C1B78DB0013447A681268FE
:20358000134403F206431B88C3F30902FB6CDA617B6818687B6803F52D71FB6CDA88FB6C84
:2035A000DB699BB205F0A4FD7B681B681B889AB240F68F7313403B827B681B683A8A42F0EB
:2035C000800292B21A80786807F0FCFCFEE2B7F95230002B80F2FA827B681B681B889AB23C
:2035E00040F68F731340FB837B681B68FA8B42F0800292B21A807B681B68B3F850309BB267
:203600001A46FB6C1B78DB0013447A681268134403F206431B88C3F30902FB6CDA61FB6CC0
:20362000DB69002B19D0FB6C5B69002B15D07B681868FB6C5969FB6CDA88FB6CDB699BB2AA
:2036400005F056FDFB6C5A69FB6CDB691A44FB6C5A610021786807F0C7FC7B681B681B8809
:20366000A7F85230B7F8523003F40063002B40F0AD82B7F8523003F44053B3F5405F00F022
:20368000A5827B681B68BB617B681B68B3F850309BB21A46BB691344BB61BB6903F206434A
:2036A0007B61FB6C1B693E2B18D9FB6C1B695B097B64FB6C1B6903F01F03002B02D17B6CD6
:2036C000013B7B647B6C9BB29B029BB26FEA43436FEA53439AB27B691A8029E0FB6C1B6925
:2036E000002B12D17B691B889BB223F4F8439AB27B691A807B691B889BB26FEA43436FEAC0
:2037000053439AB27B691A8012E0FB6C1B695B087B64FB6C1B6903F00103002B02D07B6C64
:2037200001337B647B6C9BB29B029AB27B691A807B681B681B889BB223F4804323F0700325
:203740007B827B8A83F480537B827B8A83F400537B827B681A687B8A43F07F4343F47F033C
:2037600043F4004343F080039BB213802EE27B681B681A4697F855309B0013441B88A7F81B
:203780005230B7F95230002B80F2F7807B681B681A4697F855309B0013441B889AB240F670
:2037A0008F731340A7F850307B681B681A4697F855309B001344B7F8502042F0800292B2B2
:2037C0001A8097F8552013469B001344DB0003F5B4737A6813440433FB64FB6C1B7B002B0F
:2037E00023D17B681B68B3F850309BB21A46FB6C1B78DB0013447A681268134403F206437A
:203800001B88C3F30903A7F84830B7F84830002B00F08E807B681868FB6C5969FB6CDA8887
:20382000B7F8483005F064FC82E0FB6CDB78022B0AD1B7F852301A46F96C786800F0D4F955
:203840000346A7F8483073E07B681B681A46FB6C1B789B0013441B889BB223F4E04323F0C6
:203860007003A7F84A307B681B681A46FB6C1B789B001A44B7F84A3043F07F4343F47F032C
:2038800043F4004343F0C0039BB213807B681B681A46FB6C1B789B0013441B889BB203F43F
:2038A0008043002B22D07B681B68B3F850309BB21A46FB6C1B78DB0013447A68126813440B
:2038C00003F202431B88C3F30903A7F84830B7F84830002B2CD07B681868FB6C5969FB6CF1
:2038E0001A89B7F8483005F003FC21E07B681B68B3F850309BB21A46FB6C1B78DB0013449F
:203900007A681268134403F206431B88C3F30903A7F84830B7F84830002B09D07B681868AC
:20392000FB6C5969FB6C5A89B7F8483005F0E0FBFB6CDA69B7F848301A44FB6CDA61FB6CE5
:203940005A69B7F848301A44FB6C5A61FB6C9B69002B05D0B7F84820FB6C1B699A4206D2DC
:20396000FB6C1B781946786807F03EFB05E07B681B68F96C184603F0E8FEB7F8523003F0D3
:203980008003002B00F0228197F855305A1C13469B001344DB007A6813440433FB647B6884
:2039A0001B681A4697F855309B0013441B889BB223F4E14323F07003A7F842307B681B68F6
:2039C0001A4697F855309B001A44B7F842306FEA43436FEA53439BB21380FB6CDB78012BC5
:2039E00040F0A280FB6C00229A61FB6C1B7B002B00F09380B7F8523003F04003002B46D01E
:203A0000FB6C5B78002B26D17B681B687B627B681B68B3F850309BB21A467B6A13447B62B0
:203A2000FB6C1B78DA007B6A134403F202433B623B6A1B889BB223F4F8439AB23B6A1A802D
:203A40003B6A1B889BB26FEA43436FEA53439AB23B6A1A8061E0FB6C5B78012B5DD17B68C0
:203A60001B68FB627B681B68B3F850309BB21A46FB6A1344FB62FB6C1B78DA00FB6A13447F
:203A800003F20243BB62BB6A00221A8045E07B681B68FB63FB6C5B78002B26D17B681B6843
:203AA0007B637B681B68B3F850309BB21A467B6B13447B63FB6C1B78DA007B6B134403F2C9
:203AC00006433B633B6B1B889BB223F4F8439AB23B6B1A803B6B1B889BB26FEA43436FEABD
:203AE00053439AB23B6B1A8017E0FB6C5B78012B13D17B681B68B3F850309BB21A46FB6BBF
:203B00001344FB63FB6C1B78DA00FB6B134403F20643BB63BB6B00221A80FB6C1B781946C8
:203B2000786807F07CFA51E0B7F8523003F48073002B44D17B681B68B3F850309BB21A466E
:203B4000FB6C1B78DB0013447A681268134403F202431B88C3F30903A7F84030FB6C9A696E
:203B6000B7F840309A4207D9FB6C9A69B7F84030D21AFB6C9A6102E0FB6C00229A61FB6CC6
:203B80009B69002B06D1FB6C1B781946786807F046FA1BE0FB6C5A69B7F840301A44FB6CA6
:203BA0005A61FB6CDA69B7F840301A44FB6CDA617B681B68F96C184603F0C7FD06E0B7F80C
:203BC00052301A46F96C786800F017F97B681B68B3F844309BB21BB2002BFFF64DAC0023E3
:203BE00018465837BD4680BD80B588B000AFF860B9601346FB80FB8803F48043002B7CD083
:203C0000FB681B68B3F850309BB21A46BB681B78DB001344FA681268134403F202431B88EE
:203C2000C3F309037B83BB689A697B8B9A4206D3BB689A697B8BD21ABB689A6102E0BB68A8
:203C400000229A61BB689B69002B23D1FB681B681A46BB681B789B0013441B889BB223F40C
:203C6000804323F070033B833B8B83F400533B83FB681B681A46BB681B789B001A443B8B34
:203C800043F07F4343F47F0343F4004343F080039BB21380FB8803F04003002B1FD0FB6830
:203CA0001B681A46BB681B789B0013441B889BB223F4E04323F07003FB82FB681B681A4606
:203CC000BB681B789B001A44FB8A43F07F4343F47F0343F4004343F0C0039BB213807B8BAC
:203CE000002B00F08580FB681868BB685969BB681A897B8B05F0FCF97AE0FB681B68B3F83B
:203D000050309BB21A46BB681B78DB001344FA681268134403F206431B88C3F309037B83BA
:203D2000BB689A697B8B9A4206D3BB689A697B8BD21ABB689A6102E0BB6800229A61BB6827
:203D40009B69002B23D1FB681B681A46BB681B789B0013441B889BB223F4804323F0700302
:203D6000FB83FB8B83F40053FB83FB681B681A46BB681B789B001A44FB8B43F07F4343F450
:203D80007F0343F4004343F080039BB21380FB8803F04003002B1FD1FB681B681A46BB6854
:203DA0001B789B0013441B889BB223F4E04323F07003BB83FB681B681A46BB681B789B00F9
:203DC0001A44BB8B43F07F4343F47F0343F4004343F0C0039BB213807B8B002B08D0FB68D5
:203DE0001868BB685969BB685A897B8B05F080F97B8B18462037BD4680BD80B5A2B000AFB3
:203E0000F860B9601346FB80FB8803F04003002B00F0C581FB681B68B3F850309BB21A4685
:203E2000BB681B78DB001344FA681268134403F202431B88C3F30903A7F84E30BB689A6985
:203E4000B7F84E309A4207D9BB689A69B7F84E30D21ABB689A6102E0BB6800229A61BB68D7
:203E60009B69002B40F0B980BB685B78002B26D1FB681B68BB62FB681B68B3F850309BB231
:203E80001A46BB6A1344BB62BB681B78DA00BB6A134403F202437B627B6A1B889BB223F41A
:203EA000F8439AB27B6A1A807B6A1B889BB26FEA43436FEA53439AB27B6A1A801AE0BB6871
:203EC0005B78012B16D1FB681B683B63FB681B68B3F850309BB21A463B6B13443B63BB68FC
:203EE0001B78DA003B6B134403F20243FB62FB6A00221A80FB681B683B62BB685B78002BFC
:203F000026D1FB681B68BB61FB681B68B3F850309BB21A46BB691344BB61BB681B78DA00C3
:203F2000BB69134403F206437B617B691B889BB223F4F8439AB27B691A807B691B889BB228
:203F40006FEA43436FEA53439AB27B691A8017E0BB685B78012B13D1FB681B68B3F85030BB
:203F60009BB21A463B6A13443B62BB681B78DA003B6A134403F20643FB61FB6900221A80B5
:203F8000BB681B781946F86807F049F8FB8803F48043002B00F0D282FB681B681A46BB685F
:203FA0001B789B0013441B889BB223F4E04323F070037B82FB681B681A46BB681B789B0038
:203FC0001A447B8A43F07F4343F47F0343F4404343F080039BB21380B0E2FB8803F48043B1
:203FE000002B21D0FB681B681A46BB681B789B0013441B889BB223F4E04323F07003A7F868
:020000040800F2
:204000004430FB681B681A46BB681B789B001A44B7F8443043F07F4343F47F0343F44043AC
:2040200043F080039BB21380BB6893F82430012B40F08482BB685A69B7F84E301A44BB68F2
:204040005A61BB68DA69B7F84E301A44BB68DA61BB681A6ABB681B699A4209D3BB681B69A9
:204060003B65BB681A6A3B6DD21ABB681A6215E0BB681B6A002B07D1B7F84E303B65BB6836
:20408000002283F8242009E0BB68002283F82420BB681B6A3B65BB6800221A62BB685B7853
:2040A000002B55D1FB681B68BB63FB681B68B3F850309BB21A46BB6B1344BB63BB681B789C
:2040C000DA00BB6B134403F202437B633B6D3E2B16D93B6D5B09BB643B6D03F01F03002B5E
:2040E00002D1BB6C013BBB64BB6C9BB29B029BB26FEA43436FEA53439AB27B6B1A8043E050
:204100003B6D002B12D17B6B1B889BB223F4F8439AB27B6B1A807B6B1B889BB26FEA434340
:204120006FEA53439AB27B6B1A802DE03B6D5B08BB643B6D03F00103002B02D0BB6C013396
:20414000BB64BB6C9BB29B029AB27B6B1A801BE0BB685B78012B17D1FB681B683B64FB6876
:204160001B68B3F850309BB21A463B6C13443B64BB681B78DA003B6C134403F20243FB6321
:204180003B6D9AB2FB6B1A80FB681868BB685969BB681A893B6D9BB204F068FFCEE1FB683B
:2041A0001B68B3F850309BB21A46BB681B78DB001344FA681268134403F206431B88C3F3F2
:2041C0000903A7F84E30BB689A69B7F84E309A4207D3BB689A69B7F84E30D21ABB689A6150
:2041E00002E0BB6800229A61BB689B69002B40F0C480BB685B78002B26D1FB681B68BB66B8
:20420000FB681B68B3F850309BB21A46BB6E1344BB66BB681B78DA00BB6E134403F20243F5
:204220007B667B6E1B889BB223F4F8439AB27B6E1A807B6E1B889BB26FEA43436FEA5343FC
:204240009AB27B6E1A801AE0BB685B78012B16D1FB681B683B67FB681B68B3F850309BB2A6
:204260001A463B6F13443B67BB681B78DA003B6F134403F20243FB66FB6E00221A80FB6887
:204280001B68FB67BB685B78002B2FD1FB681B68C7F88430FB681B68B3F850309BB21A4601
:2042A000D7F884301344C7F88430BB681B78DA00D7F88430134403F20643C7F88030D7F8CB
:2042C00080301B889BB223F4F8439AB2D7F880301A80D7F880301B889BB26FEA43436FEAE0
:2042E00053439AB2D7F880301A8017E0BB685B78012B13D1FB681B68B3F850309BB21A4608
:20430000FB6F1344FB67BB681B78DA00FB6F134403F20643BB67BB6F00221A80BB681B782D
:204320001946F86806F07BFEFB8803F48043002B40F00481FB681B681A46BB681B789B009B
:2043400013441B889BB223F4E04323F07003A7F84630FB681B681A46BB681B789B001A444C
:20436000B7F8463043F07F4343F47F0343F4404343F080039BB21380E0E0FB8803F480431D
:20438000002B21D1FB681B681A46BB681B789B0013441B889BB223F4E04323F07003A7F8C3
:2043A0004C30FB681B681A46BB681B789B001A44B7F84C3043F07F4343F47F0343F44043F9
:2043C00043F080039BB21380BB6893F82430012B40F0B480BB685A69B7F84E301A44BB6821
:2043E0005A61BB68DA69B7F84E301A44BB68DA61BB681A6ABB681B699A4209D3BB681B6906
:204400003B65BB681A6A3B6DD21ABB681A6215E0BB681B6A002B07D1B7F84E303B65BB6892
:20442000002283F8242009E0BB681B6A3B65BB6800221A62BB68002283F82420FB681B68BF
:204440003B66BB685B78002B55D1FB681B68BB65FB681B68B3F850309BB21A46BB6D134431
:20446000BB65BB681B78DA00BB6D134403F206437B653B6D3E2B16D93B6D5B097B673B6D59
:2044800003F01F03002B02D17B6F013B7B677B6F9BB29B029BB26FEA43436FEA53439AB2C6
:2044A0007B6D1A8040E03B6D002B12D17B6D1B889BB223F4F8439AB27B6D1A807B6D1B8821
:2044C0009BB26FEA43436FEA53439AB27B6D1A802AE03B6D5B087B673B6D03F00103002B32
:2044E00002D07B6F01337B677B6F9BB29B029AB27B6D1A8018E0BB685B78012B14D1FB68E6
:204500001B68B3F850309BB21A463B6E13443B66BB681B78DA003B6E134403F20643FB6571
:204520003B6D9AB2FB6D1A80FB681868BB685969BB685A893B6D9BB204F098FDFB681B6853
:204540001A46BB681B789B0013441B889BB223F4E04323F040033B823B8A83F010033B820E
:204560003B8A83F020033B82FB681B681A46BB681B789B001A443B8A43F07F4343F47F03BB
:2045800043F4004343F080039BB21380002318468837BD4680BD80B487B000AFF8607B603E
:2045A0000B467B8113463B817B8903F080039BB2002B0CD07B8903F007035A1C13469B0060
:2045C0001344DB00FA68134404337B610AE07A8913469B001344DB0003F5B473FA681344F2
:2045E00004337B613B89002B07D17B6900221A737B689AB27B69DA800BE07B6901221A7362
:204600007B689AB27B691A817B681B0C9AB27B695A81002318461C37BD465DF8047B704775
:2046200080B485B000AF78607B681B68FB607B680122C3F8F0227B68002283F8E422FB680D
:20464000B3F854309BB243F001039AB2FB68A3F85420FB68B3F854309BB243F002039AB286
:20466000FB68A3F85420002318461437BD465DF8047B704780B400AF044B1B6803F4C0639F
:204680001846BD465DF8047B704700BF0070004080B485B000AF78607B68B3F5007F30D1C4
:2046A000234B1B6803F4C063B3F5007F38D0204B1B6823F4C0631E4A43F4007313601D4BAB
:2046C0001B68322202FB03F31B4AA2FB03239B0C0133FB6002E0FB68013BFB60144B5B69B3
:2046E00003F48063B3F5806F02D1FB68002BF2D10F4B5B6903F48063B3F5806F10D103238F
:204700000FE00B4B1B6803F4C063B3F5806F07D0074B1B6823F4C063054A43F4806313605E
:20472000002318461437BD465DF8047B704700BF00700040B400002083DE1B4380B400AF3A
:20474000054B5B68044A43F48063536000BFBD465DF8047B704700BF0070004080B58AB000
:2047600000AF78607B68002B02D1012300F04FBC974B9B6803F00C033B62954BDB6803F018
:204780000303FB617B681B6803F01003002B00F0E6803B6A002B07D03B6A0C2B40F08D800A
:2047A000FB69012B40F08980894B1B6803F00203002B06D07B68DB69002B02D1012300F0A7
:2047C00026BC7B685A6A824B1B6803F00803002B04D07F4B1B6803F0F00305E07C4BD3F859
:2047E00094301B0903F0F003934224D27B685B6A184600F0A1FD0346002B02D0012300F032
:2048000006BC734B1B68724A43F008031360704B1B6823F0F0027B685B6A6D4913430B60C6
:204820006B4B5B6823F47F427B681B6A1B02684913434B6025E0664B1B68654A43F00803CA
:204840001360634B1B6823F0F0027B685B6A604913430B605E4B5B6823F47F427B681B6AF1
:204860001B025B4913434B603B6A002B09D17B685B6A184600F060FD0346002B01D0012310
:20488000C5E300F0CDFC0246514B9B681B0903F00F035049CB5C03F01F0322FA03F34E4A28
:2048A00013604E4B1B681846FDF73AFD0346FB75FB7D002B52D0FB7DA9E37B68DB69002B0C
:2048C00032D0434B1B68424A43F001031360FDF777FDB86108E0FDF773FD0246BB69D31A69
:2048E000022B01D9032392E3394B1B6803F00203002BF0D0364B1B68354A43F008031360F8
:20490000334B1B6823F0F0027B685B6A304913430B602F4B5B6823F47F427B681B6A1B0215
:204920002B4913434B601AE0294B1B68284A23F001031360FDF744FDB86108E0FDF740FDAE
:204940000246BB69D31A022B01D903235FE3204B1B6803F00203002BF0D100E000BF7B683B
:204960001B6803F00103002B73D03B6A082B05D03B6A0C2B0ED1FB69032B0BD1144B1B6897
:2049800003F40033002B63D07B685B68002B5FD101233CE37B685B68B3F5803F06D10C4B10
:2049A0001B680B4A43F48033136025E07B685B68B3F5A02F14D1064B1B68054A43F48023BE
:2049C0001360034B1B68024A43F48033136013E00010024038B70008B4000020B800002002
:2049E0008F4B1B688E4A23F4803313608C4B1B688B4A23F4802313607B685B68002B13D035
:204A0000FDF7DEFCB86108E0FDF7DAFC0246BB69D31A642B01D90323F9E2814B1B6803F4F4
:204A20000033002BF0D014E0FDF7CAFCB86108E0FDF7C6FC0246BB69D31A642B01D903230B
:204A4000E5E2774B1B6803F40033002BF0D100E000BF7B681B6803F00203002B60D03B6A37
:204A6000042B05D03B6A0C2B19D1FB69022B16D16B4B1B6803F48063002B05D07B68DB68BB
:204A8000002B01D10123C2E2654B5B6823F0FE427B681B691B06624913434B6040E07B6854
:204AA000DB68002B23D05E4B1B685D4A43F480731360FDF785FCB86108E0FDF781FC0246F6
:204AC000BB69D31A022B01D90323A0E2544B1B6803F48063002BF0D0514B5B6823F0FE427D
:204AE0007B681B691B064E4913434B6018E04C4B1B684B4A23F480731360FDF761FCB86108
:204B000008E0FDF75DFC0246BB69D31A022B01D903237CE2424B1B6803F48063002BF0D1A6
:204B20007B681B6803F00803002B00F082807B685B69002B5FD03A4BD3F894303B617B6860
:204B40009A693B6903F010039A4237D03B6903F00203002B06D03B6903F00103002B01D190
:204B6000012354E23B6903F00103002B1BD02C4BD3F894302A4A23F00103C2F89430FDF727
:204B80001FFCB86108E0FDF71BFC0246BB69D31A112B01D903233AE2214BD3F8943003F04F
:204BA0000203002BEFD11E4BD3F8943023F010027B689B691A491343C1F89430184BD3F89D
:204BC0009430174A43F00103C2F89430FDF7F8FBB86108E0FDF7F4FB0246BB69D31A112B9B
:204BE00001D9032313E20E4BD3F8943003F00203002BEFD01DE00A4BD3F89430084A23F0B0
:204C00000103C2F89430FDF7DBFBB8610AE0FDF7D7FB0246BB69D31A112B03D90323F6E111
:204C200000100240A94BD3F8943003F00203002BEDD17B681B6803F00403002B00F0BD8006
:204C4000002387F82730A14B9B6D03F08053002B0ED19E4B9B6D9D4A43F0805393659B4BDB
:204C60009B6D03F08053FB60FB68012387F82730974B1B6803F48073002B18D1944B1B68E9
:204C8000934A43F480731360FDF79AFBB86108E0FDF796FB0246BB69D31A022B01D9032305
:204CA000B5E18B4B1B6803F48073002BF0D07B689B6803F00103002B2CD0844BD3F89030D2
:204CC00023F080027B689B6803F080037F491343C1F890307B689B6803F00403002B10D061
:204CE0007A4BD3F89030794A43F00403C2F89030764BD3F89030754A43F00103C2F8903031
:204D000018E0724BD3F89030704A43F00103C2F890300FE06D4BD3F890306C4A23F00103E9
:204D2000C2F89030694BD3F89030684A23F00403C2F890307B689B68002B16D0FDF740FB4E
:204D4000B8610AE0FDF73CFB0246BB69D31A41F28832934201D9032359E15C4BD3F890309E
:204D600003F00203002BEDD01DE0FDF729FBB8610AE0FDF725FB0246BB69D31A41F28832E1
:204D8000934201D9032342E1504BD3F8903003F00203002BEDD14D4BD3F890304B4A23F049
:204DA0008003C2F8903097F82730012B05D1474B9B6D464A23F0805393657B681B6803F0AD
:204DC0002003002B3CD07B689B6A002B1CD03F4BD3F898303D4A43F00103C2F89830FDF729
:204DE000EFFAB86108E0FDF7EBFA0246BB69D31A022B01D903230AE1344BD3F8983003F07A
:204E00000203002BEFD01BE0304BD3F898302F4A23F00103C2F89830FDF7D2FAB86108E0C7
:204E2000FDF7CEFA0246BB69D31A022B01D90323EDE0264BD3F8983003F00203002BEFD17C
:204E40007B68DB6A002B00F0E1807B68DB6A022B40F0B5801D4BDB68FB61FB6903F0030291
:204E60007B681B6B9A4224D1FB6903F070027B685B6B013B1B019A421BD1FB6903F4FE42CB
:204E80007B689B6B1B029A4213D1FB6903F4C0027B68DB6B5B08013B5B059A4209D1FB69ED
:204EA00003F0C0627B681B6C5B08013B5B069A425FD03B6A0C2B5AD0044B1B68034A23F030
:204EC00080731360FDF77CFAB8610CE00010024000700040FDF774FA0246BB69D31A022B13
:204EE00001D9032393E04C4B1B6803F00073002BF0D1494BDA68494B13407A68116B7A68D6
:204F0000526B013A120111437A68926B120211437A68D26B5208013A520511437A68126C2C
:204F20005208013A52060A433B491343CB603A4B1B68394A43F080731360374BDB68364AC9
:204F400043F08073D360FDF73BFAB86108E0FDF737FA0246BB69D31A022B01D9032356E0ED
:204F60002D4B1B6803F00073002BF0D04EE001234DE0294B1B6803F00073002B46D1264B56
:204F80001B68254A43F080731360234BDB68224A43F08073D360FDF713FAB86108E0FDF71A
:204FA0000FFA0246BB69D31A022B01D903232EE0194B1B6803F00073002BF0D026E03B6A71
:204FC0000C2B21D0144B1B68134A23F080731360FDF7F6F9B86108E0FDF7F2F90246BB69C2
:204FE000D31A022B01D9032311E00B4B1B6803F00073002BF0D1084BDB68074A23F0887386
:2050000023F00303D36001E0012300E0002318462837BD4680BD00BF001002408C809FF98A
:2050200080B584B000AF786039607B68002B01D10123E7E0754B1B6803F007033A689A425E
:2050400010D9724B1B6823F0070270493B6813430B606E4B1B6803F007033A689A4201D066
:205060000123CFE07B681B6803F00203002B10D07B689A68664B9B6803F0F0039A4208D9B8
:20508000634B9B6823F0F0027B689B68604913438B607B681B6803F00103002B4CD07B6803
:2050A0005B68032B07D15A4B1B6803F00073002B21D10123A6E07B685B68022B07D1544B88
:2050C0001B6803F40033002B15D101239AE07B685B68002B07D14E4B1B6803F00203002B8C
:2050E00009D101238EE04A4B1B6803F48063002B01D1012386E0464B9B6823F003027B683C
:205100005B68434913438B60FDF75AF9F8600AE0FDF756F90246FB68D31A41F288329342D9
:2051200001D903236EE03A4B9B6803F00C027B685B689B009A42EBD17B681B6803F0020361
:20514000002B10D07B689A68314B9B6803F0F0039A4208D22E4B9B6823F0F0027B689B68DD
:205160002B4913438B60294B1B6803F007033A689A4210D2254B1B6823F0070223493B6808
:2051800013430B60214B1B6803F007033A689A4201D0012336E07B681B6803F00403002B4E
:2051A00008D01B4B9B6823F4E0627B68DB68184913438B607B681B6803F00803002B09D025
:2051C000134B9B6823F460527B681B69DB00104913438B6000F024F802460D4B9B681B09F6
:2051E00003F00F030B49CB5C03F01F0322FA03F3094A1360094B1B681846FDF791F8034647
:20520000FB72FB7A18461037BD4680BD002002400010024038B70008B4000020B800002070
:2052200080B489B000AF0023FB610023BB613E4B9B6803F00C033B613B4BDB6803F00303A8
:20524000FB603B69002B05D03B690C2B21D1FB68012B1ED1344B1B6803F00803002B07D101
:20526000314BD3F894301B0A03F00F03FB6105E02D4B1B681B0903F00F03FB612B4AFB695F
:2052800052F82330FB613B69002B0DD1FB69BB610AE03B69042B02D1254BBB6104E03B6944
:2052A000082B01D1234BBB613B690C2B34D11E4BDB6803F00303BB60BB68022B03D0BB6879
:2052C000032B03D005E01A4B7B6105E0194B7B6102E0FB697B6100BF134BDB681B0903F0E9
:2052E000070301337B60104BDB681B0A03F07F037A6903FB02F27B68B2FBF3F37B610A4BE1
:20530000DB685B0E03F0030301335B003B607A693B68B2FBF3F3BB61BB6918462437BD46A9
:205320005DF8047B704700BF0010024050B700080024F4000048E80180B586B000AF786087
:2053400000233B612A4B9B6D03F08053002B03D0FFF790F9786114E0254B9B6D244A43F0E8
:2053600080539365224B9B6D03F08053FB60FB68FFF780F978611E4B9B6D1D4A23F0805363
:2053800093657B69B3F5007F0BD17B68802B19D97B68A02B02D902233B6113E001233B61B1
:2053A00010E07B68802B02D903233B610AE07B68802B02D102233B6104E07B68702B01D192
:2053C00001233B610B4B1B6823F0070209493B6913430B60074B1B6803F007033A699A4210
:2053E00001D0012300E0002318461837BD4680BD001002400020024080B586B000AF786022
:205400000023FB740023BB747B681B6803F40033002B00F09E8000237B74464B9B6D03F041
:205420008053002B01D1012300E00023002B0DD0404B9B6D3F4A43F0805393653D4B9B6DC3
:2054400003F08053BB60BB6801237B743A4B1B68394A43F480731360FCF7B2FFF86009E028
:20546000FCF7AEFF0246FB68D31A022B02D90323FB7405E0304B1B6803F48073002BEFD0A0
:20548000FB7C002B5AD12B4BD3F8903003F440737B617B69002B1ED07B681B6B7A699A4293
:2054A00019D0244BD3F8903023F440737B61214BD3F890301F4A43F48033C2F890301D4B37
:2054C000D3F890301B4A23F48033C2F89030194A7B69C2F890307B6903F00103002B16D0EB
:2054E000FCF76EFFF8600BE0FCF76AFF0246FB68D31A41F28832934202D90323FB7406E0FD
:205500000C4BD3F8903003F00203002BECD0FB7C002B0BD1074BD3F8903023F440727B68C3
:205520001B6B04491343C1F8903009E0FB7CBB7406E000BF0010024000700040FB7CBB74ED
:205540007B7C012B05D16E4B9B6D6D4A23F0805393657B681B6803F00103002B0AD0684BE7
:20556000D3F8883023F003027B685B6864491343C1F888307B681B6803F00203002B0AD013
:205580005F4BD3F8883023F00C027B689B685C491343C1F888307B681B6803F00403002BE0
:2055A0000AD0574BD3F8883023F030027B68DB6853491343C1F888307B681B6803F02003A2
:2055C000002B0AD04E4BD3F8883023F440627B681B694B491343C1F888307B681B6803F4D2
:2055E0000073002B0AD0464BD3F8883023F440227B681B6A42491343C1F888307B681B6886
:2056000003F48063002B0AD03D4BD3F8883023F440127B685B6A3A491343C1F888307B6862
:205620001B6803F04003002B0AD0354BD3F8883023F440527B685B6931491343C1F8883018
:205640007B681B6803F08003002B0AD02C4BD3F8883023F440427B689B6929491343C1F86E
:2056600088307B681B6803F48073002B0AD0244BD3F8883023F440327B68DB6920491343BC
:20568000C1F888307B681B6803F40053002B15D01B4BD3F8883023F040627B689B6A1849F2
:2056A0001343C1F888307B689B6AB3F1006F05D1134BDB68124A43F48013D3607B681B68F2
:2056C00003F48023002B15D00D4BD3F8883023F040627B68DB6A0A491343C1F888307B686B
:2056E000DB6AB3F1006F05D1054BDB68044A43F48013D360BB7C18461837BD4680BD00BFBB
:205700000010024080B584B000AF78607B68002B01D1012395E07B685B6A002B08D17B683F
:205720005B68B3F5827F09D07B680022DA6105E07B6800221A617B6800225A617B680022BA
:205740009A627B6893F85D30DBB2002B06D17B68002283F85C207868FBF76AFE7B68022286
:2057600083F85D207B681B681A687B681B6822F040021A607B68DB68B3F5E06F02D90023FA
:20578000FB6002E04FF48053FB607B68DB68B3F5706F07D07B68DB68B3F5E06F02D07B6805
:2057A00000229A627B685B6803F482727B689B6803F404431A437B681B6903F002031A43FD
:2057C0007B685B6903F001031A437B689B6903F400731A437B68DB6903F038031A437B688B
:2057E0001B6A03F0800342EA03017B689B6A03F400527B681B680A431A607B689B691B0C12
:2058000003F004027B685B6A03F010031A437B685B6B03F008031A437B68DB6803F4706390
:2058200042EA0301FB6803F480527B681B680A435A607B6800221A667B68012283F85D201C
:20584000002318461037BD4680BD80B48BB000AFF860B9607A60FB681A68BB687B617B690F
:2058600093FAA3F33B613B69BB61BB69002B01D1202303E0BB69B3FA83F3DBB25B0003210F
:2058800001FA03F3DB431A40BB683B623B6A93FAA3F3FB61FB697B627B6A002B01D1202355
:2058A00003E07B6AB3FA83F3DBB25B00796801FA03F31A43FB681A6000BF2C37BD465DF88F
:2058C000047B704780B485B000AFF860B9607A60FB685A68BB68DB431A40BB68796801FB6F
:2058E00003F31A43FB685A6000BF1437BD465DF8047B704780B48BB000AFF860B9607A6037
:20590000FB689A68BB687B617B6993FAA3F33B613B69BB61BB69002B01D1202303E0BB6955
:20592000B3FA83F3DBB25B00032101FA03F3DB431A40BB683B623B6A93FAA3F3FB61FB6987
:205940007B627B6A002B01D1202303E07B6AB3FA83F3DBB25B00796801FA03F31A43FB68E0
:205960009A6000BF2C37BD465DF8047B704780B48BB000AFF860B9607A60FB68DA68BB684C
:205980007B617B6993FAA3F33B613B69BB61BB69002B01D1202303E0BB69B3FA83F3DBB2AD
:2059A0005B00032101FA03F3DB431A40BB683B623B6A93FAA3F3FB61FB697B627B6A002BCA
:2059C00001D1202303E07B6AB3FA83F3DBB25B00796801FA03F31A43FB68DA6000BF2C37F1
:2059E000BD465DF8047B704780B48BB000AFF860B9607A60FB681A6ABB687B617B6993FA59
:205A0000A3F33B613B69BB61BB69002B01D1202303E0BB69B3FA83F3DBB29B000F2101FAB3
:205A200003F3DB431A40BB683B623B6A93FAA3F3FB61FB697B627B6A002B01D1202303E0CB
:205A40007B6AB3FA83F3DBB29B00796801FA03F31A43FB681A6200BF2C37BD465DF8047B0F
:205A6000704780B48BB000AFF860B9607A60FB685A6ABB681B0A7B617B6993FAA3F33B6118
:205A80003B69BB61BB69002B01D1202303E0BB69B3FA83F3DBB29B000F2101FA03F3DB4351
:205AA0001A40BB681B0A3B623B6A93FAA3F3FB61FB697B627B6A002B01D1202303E07B6A55
:205AC000B3FA83F3DBB29B00796801FA03F31A43FB685A6200BF2C37BD465DF8047B70477D
:205AE00080B588B000AF786039603B681B683B613B6993FAA3F3FB60FB687B617B69002BE7
:205B000001D1202303E07B69B3FA83F3DBB2FB6148E03B681A680121FB6901FA03F3134086
:205B2000BB61BB69002B3AD03B685B68012B03D03B685B68022B0ED13B689B681A46B969F1
:205B40007868FFF7D7FE3B6819683B68DB681A467868FFF7B7FE3B681B691A46B96978681C
:205B6000FFF705FF3B685B68022B11D1BB69FF2B07D83B685B691A46B9697868FFF734FF97
:205B800006E03B685B691A46B9697868FFF769FF3B685B681A46B9697868FFF756FEFB6982
:205BA0000133FB613B681A68FB6922FA03F3002BAFD1002318462037BD4680BD80B400AF14
:205BC000074B1B6803F48063B3F5806F01D1012300E000231846BD465DF8047B704700BFDB
:205BE0000010024080B400AF074BD3F8903003F00203022B01D1012300E000231846BD4614
:205C00005DF8047B704700BF0010024080B400AF064B1B6803F00803082B01D1012300E02A
:205C200000231846BD465DF8047B70470010024080B400AF044B1B6803F0F0031846BD4607
:205C40005DF8047B704700BF0010024080B400AF044BD3F8943003F470631846BD465DF867
:205C6000047B70470010024080B400AF044B9B6803F00C031846BD465DF8047B704700BFBA
:205C80000010024080B400AF044B9B6803F0F0031846BD465DF8047B704700BF001002409A
:205CA00080B400AF044B9B6803F4E0631846BD465DF8047B704700BF0010024080B400AF95
:205CC000044B9B6803F460531846BD465DF8047B704700BF0010024080B483B000AF7860DD
:205CE000064BD3F888207B681A407B681B04134318460C37BD465DF8047B704700100240CA
:205D000080B400AF044BDB6803F003031846BD465DF8047B704700BF0010024080B400AF35
:205D2000044BDB681B0A03F07F031846BD465DF8047B70470010024080B400AF044BDB6884
:205D400003F0C0631846BD465DF8047B704700BF0010024080B400AF044BDB6803F0700355
:205D60001846BD465DF8047B704700BF0010024080B584B000AF78600023FB607B68032BA7
:205D800037D17868FFF7A8FF0346A3F54033032B00F2B38001A252F823F000BFDB5D0008D8
:205DA000AD5D0008B55D0008C75D000800F0C2F8F860B3E0FFF702FF0346002B00F09F807C
:205DC000594BFB609BE0FFF70DFF0346002B00F098804FF40043FB6093E000F0ABF803469B
:205DE000184600F037F90346184600F05DF9F86094E07B680C2B46D17868FFF76DFF0346B0
:205E0000A3F540230C2B7ED801A252F823F000BF6F5E0008075F0008075F0008075F00081C
:205E2000455E0008075F0008075F0008075F00084D5E0008075F0008075F0008075F000870
:205E40005D5E000800F076F8F86067E0FFF7B6FE0346002B59D0344BFB6056E0FFF7C2FE75
:205E60000346002B53D04FF40043FB604FE000F061F80346184600F0EDF80346184600F01F
:205E8000FFF8F8604AE07B68302B47D17868FFF723FF0346B3F1301F1AD0B3F1301F38D812
:205EA000224A93420CD0214A934232D8B3F5401F17D01F4A93422CD100F03CF8F8602DE0C9
:205EC000FFF77CFE0346002B25D0174BFB6022E0FFF788FE0346002B1FD04FF40043FB606A
:205EE0001BE000F027F80346184600F0B3F80346184600F0C5F8F86010E000BF0EE000BF4E
:205F00000CE000BF0AE000BF08E000BF06E000BF04E000BF02E000BF00E000BFFB6818463D
:205F20001037BD4680BD00BF0024F400200030001000300080B582B000AFFFF795FE03468B
:205F40000C2B51D801A252F823F000BF815F0008E95F0008E95F0008E95F0008D55F00080E
:205F6000E95F0008E95F0008E95F0008DB5F0008E95F0008E95F0008E95F0008E15F0008B7
:205F8000FFF744FE0346002B11D1FFF73FFE0346002B04D0FFF74CFE03461B0A03E0FFF771
:205FA00055FE03461B0A284A52F8233010E0FFF72DFE0346002B04D0FFF73AFE03461B091D
:205FC00003E0FFF743FE03461B091F4A52F823307B6033E01D4B7B6030E01D4B7B602DE0A3
:205FE00000F076F8786029E0FFF710FE0346002B11D1FFF70BFE0346002B04D0FFF718FEB5
:020000040800F2
:2060000003461B0A03E0FFF721FE03461B0A0E4A52F8233010E0FFF7F9FD0346002B04D093
:20602000FFF706FE03461B0903E0FFF70FFE03461B09054A52F823307B6000BF7B681846DF
:206040000837BD4680BD00BF50B700080024F4000048E80180B582B000AF7860FFF712FEB6
:2060600003461B0903F00F03044AD35C1A467B68D34018460837BD4680BD00BF38B7000848
:2060800080B582B000AF7860FFF70AFE03461B0A044AD35C1A467B68D34018460837BD4633
:2060A00080BD00BF48B7000880B582B000AF7860FFF704FE0346DB0A044AD35C1A467B6809
:2060C000D34018460837BD4680BD00BF48B7000890B583B000AFFFF713FE38603B68032B73
:2060E00036D03B68032B36D83B68012B03D03B68022B2AD02FE0FFF789FD0346002B11D16E
:20610000FFF784FD0346002B04D0FFF791FD03461B0A03E0FFF79AFD03461B0A2F4A52F82D
:20612000233010E0FFF772FD0346002B04D0FFF77FFD03461B0903E0FFF788FD03461B09C5
:20614000264A52F823307B602FE0254B7B602CE0244B7B6029E0FFF759FD0346002B11D1FC
:20616000FFF754FD0346002B04D0FFF761FD03461B0A03E0FFF76AFD03461B0A174A52F875
:20618000233010E0FFF742FD0346002B04D0FFF74FFD03461B0903E0FFF758FD03461B09F5
:2061A0000E4A52F823307B6000BFFFF7D3FD03461B0901337A68B2FBF3F4FFF7AFFD034688
:2061C00003FB04F4FFF7B8FD03465B0E01335B00B4FBF3F318460C37BD4690BD50B7000848
:2061E0000024F4000048E80180B483B000AF786039607B683A689A6200BF0C37BD465DF8F4
:20620000047B704780B483B000AF786039607B683A68DA6200BF0C37BD465DF8047B704770
:2062200080B483B000AF786039607B683A681A6300BF0C37BD465DF8047B704780B483B0DE
:2062400000AF786039607B683A685A6300BF0C37BD465DF8047B704780B483B000AF78605E
:2062600039607B683A689A6300BF0C37BD465DF8047B704780B483B000AF786039607B6809
:206280003A68DA6300BF0C37BD465DF8047B704780B483B000AF786039607B683A681A6405
:2062A00000BF0C37BD465DF8047B704780B483B000AF786039607B689B6D7B683A689A6558
:2062C00000BF0C37BD465DF8047B704780B483B000AF786039607B683A68DA6500BF0C37E1
:2062E000BD465DF8047B704780B483B000AF78607B685B6943F001027B685A6100BF0C37A5
:20630000BD465DF8047B704780B584B000AF786039607B681B68FB607B68274A934203D0A9
:206320007B68B3F1804F06D1FB6823F070023B685B681343FB607B681F4A93420BD07B6852
:20634000B3F1804F07D07B681C4A934203D07B681B4A934206D1FB6823F440723B68DB68FC
:206360001343FB607B68FA681A603B689B6819467868FFF747FF3B681B8819467868FFF711
:2063800033FF7B680C4A934207D07B680B4A934203D07B680A4A934205D13B681B6919469E
:2063A0007868FFF73DFF7868FFF79EFF002318461037BD4680BD00BF002C014000400140A3
:2063C0000044014080B586B000AFF860B9607A600123FB75BB68B3F5801F45D0BB68B3F5F5
:2063E000801F48D8BB68B3F5803F36D0BB68B3F5803F40D8BB68B3F5805F27D0BB68B3F540
:20640000805F38D8BB68B3F5807F18D0BB68B3F5807F30D8BB68012B03D0BB68102B07D0B2
:2064200029E07968F86800F02DF80346FB7523E07968F86800F09AF80346FB751CE07968E8
:20644000F86800F00BF90346FB7515E07968F86800F07CF90346FB750EE07968F86800F0BC
:20646000D5F90346FB7507E07968F86800F026FA0346FB7500E000BFFB7D18461837BD46DD
:2064800080BD000080B586B000AF786039607B681B6A23F001027B681A627B681B6A7B6113
:2064A0007B685B683B617B689B69FB60FB6823F00303FB60FB6823F4803323F070033A682C
:2064C00012681343FB607B6923F002023B681B6913437B617B6923F001023B685B68134387
:2064E0007B617B681E4A934207D07B681D4A934203D07B681C4A93421ED17B6923F00802C9
:206500003B685B699B0013437B617B6923F004023B689B689B0013437B613B6923F480722A
:206520003B689B6913433B613B6923F400723B68DB695B0013433B617B683A695A607B683E
:20654000FA689A613B68DB6819467868FFF776FE7B687A691A62002318461837BD4680BDFD
:20656000002C0140004001400044014080B586B000AF786039607B681B6A23F010027B68AD
:206580001A627B681B6A7B617B685B683B617B689B69FB60FB6823F44073FB60FB6823F0B9
:2065A000807323F4E0433A68126812021343FB607B6923F020023B681B691B0113437B613F
:2065C0007B6923F010023B685B681B0113437B617B681F4A934207D07B681E4A934203D013
:2065E0007B681D4A93421FD17B6923F080023B685B699B0113437B617B6923F040023B6802
:206600009B689B0113437B613B6923F480623B689B699B0013433B613B6923F400623B6818
:20662000DB69DB0013433B617B683A695A607B68FA689A613B68DB6819467868FFF70CFEA4
:206640007B687A691A62002318461837BD4680BD002C0140004001400044014080B586B00A
:2066600000AF786039607B681B6A23F480727B681A627B681B6A7B617B685B683B617B68C1
:20668000DB69FB60FB6823F00303FB60FB6823F4803323F070033A6812681343FB607B6920
:2066A00023F400723B681B691B0213437B617B6923F480723B685B681B0213437B617B6856
:2066C0001F4A934207D07B681E4A934203D07B681D4A93421FD17B6923F400623B685B69DF
:2066E0009B0213437B617B6923F480623B689B689B0213437B613B6923F480523B689B6945
:206700001B0113433B613B6923F400523B68DB695B0113433B617B683A695A607B68FA68A4
:20672000DA613B68DB6819467868FFF7A3FD7B687A691A62002318461837BD4680BD00BF52
:20674000002C0140004001400044014080B586B000AF786039607B681B6A23F480527B6807
:206760001A627B681B6A3B617B685B687B617B68DB69FB60FB6823F44073FB60FB6823F097
:20678000807323F4E0433A68126812021343FB603B6923F400523B681B691B0313433B61A7
:2067A0003B6923F480523B685B681B0313433B617B68134A934207D07B68124A934203D003
:2067C0007B68114A934207D17B6923F480423B689B699B0113437B617B687A695A607B6839
:2067E000FA68DA613B68DB6819467868FFF750FD7B683A691A62002318461837BD4680BD82
:20680000002C0140004001400044014080B584B000AF786039607B681B6A23F480327B6868
:206820001A627B681B6AFB607B685B6DBB60BB6823F4803323F070033A6812681343BB6053
:20684000FB6823F400323B681B691B041343FB60FB6823F480323B685B681B041343FB6033
:206860007B68134A934207D07B68124A934203D07B68114A934209D17B685B6823F48032E9
:206880003B689B691B021A437B685A607B68BA685A653B68DB6819467868FFF707FD7B6874
:2068A000FA681A62002318461037BD4680BD00BF002C0140004001400044014080B584B057
:2068C00000AF786039607B681B6A23F480127B681A627B681B6AFB607B685B6DBB60BB687C
:2068E00023F0807323F4E0433A68126812021343BB60FB6823F400123B681B691B0513438E
:20690000FB60FB6823F480123B685B681B051343FB607B68124A934207D07B68114A9342DB
