:020000040800F2
:2000000000080024FDC800080DC9000811C9000815C9000819C900081DC900080000000069
:2000200000000000000000000000000011AE000821C9000800000000B5AD000823C90008A9
:20004000A5CB0008A9CB0008ADCB0008B1CB0008B5CB0008B9CB0008BDCB0008C1CB000870
:200060002FC90008C5CB0008C9CB0008CDCB0008D1CB0008D5CB0008D9CB0008DDCB000804
:20008000E1CB0008E5CB0008E9CB0008EDCB0008F1CB0008F5CB0008F9CB0008FDCB000850
:2000A00001CC000805CC000809CC00080DCC000811CC000815CC000819CC00081DCC000828
:2000C00021CC000825CC000829CC00082DCC000831CC000835CC000839CC00083DCC000808
:2000E00027C9000841CC00080000000045CC000849CC00084DCC000851CC000855CC00084E
:2001000059CC00085DCC000861CC000865CC000869CC00086DCC0008DB6C000871CC000801
:2001200075CC000879CC00087DCC000881CC000885CC000889CC00088DCC000891CC000807
:200140000000000000000000000000000000000095CC000899CC00089DCC0008A1CC0008E3
:20016000A5CC0008A9CC0008ADCC0008B1CC0008B5CC0008B9CC0008BDCC0008C1CC000847
:20018000C5CC0008C9CC0008CDCC0008D1CC0008D5CC0008D9CC0008DDCC0008E1CC000827
:2001A00035C90008E5CC000873720008E9CC0008EDCC0008F1CC0008F5CC0008F9CC0008BA
:2001C000FDCC000801CD000805CD000809CD00080DCD000811CD000815CD000819CD000820
:2001E0001DCD000821CD000825CD000829CD00082DCD000831CD000835CD000839CD0008FF
:200200003DCD000841CD000845CD000849CD00084DCD000851CD000855CD000859CD0008DE
:200220005DCD000805B000080BB000080000000061CD000865CD00080000000069CD00085E
:200240006DCD000871CD000875CD000879CD00087DCD000881CD000885CD000889CD00081E
:200260008DCD000891CD000895CD000899CD00089DCD0008A1CD0008A5CD0008000000007C
:20028000A9CD0008ADCD0008B1CD00080000000000000000B5CD00081200150048002000BF
:2002A000AC434F9000000000F8040008E001100180072000D4E64F9000000000F804000836
:2002C0002E002E00B800200094494F9000000000F80400082E002E00B8002000A46A4F9009
:2002E00000000000F80400085601F20058052000D4DE579000000000F80400082E002E003B
:20030000B8002000B48B4F9000000000F804000828002800A0002000C4AC4F900000000084
:20032000F80400085601F2005805200004EC5C9000000000F804000854535F5461736B007A
:200340004755495F54687265616400004175746F44656D6F5461736B000000002E002E00F4
:20036000B8002000C4C54F9000000000F804000853706C6173682053637265656E0000004E
:20038000566964656F204672616D65005354204C61756E63686572004261636B67726F7534
:2003A0006E6400005265666C656374005354656D57696E00546F7563684746580000000017
:2003C000535420496E666F00496E666F000000004D43552049636F6E000000004D435500CB
:2003E00053544D333248373530000000426F6172642049636F6E0000426F61726400000047
:2004000053544D333248373530422D444B0000004350552053706565642049636F6E0000FF
:20042000435055205370656564000000343030204D487A004669726D2E205665722049632B
:200440006F6E00004669726D2E2056657200000056312E342E3000005375622D44656D6F93
:20046000732044657461696C730000004469616C6F6720426F7800005469746C6500000088
:2004800054657874000000004F4B0000496E666F20426F78000000005375622D44656D6F6C
:2004A0002044657461696C730000000049636F6E310000005375622D44656D6F204E6F746F
:2004C00020496E7374616C6C6564000049636F6E32000000140110015004200034F96190E9
:2004E00000000000F804000853706C61736853637265656E0000000085E600905F5E0090E5
:2005000000000000000000005DE600906DEA009031C200900000000035E60090E5E200909C
:200520009F550090010000002DD3009039CF0090FB6200905F5E00906B5D0090000000007C
:20054000D1EC009021ED0090000000007D34009041ED0090E1EC00908D9D0090653900906C
:20056000753900909DE7009041C4009029B0009071DE0090F1EC00905712009041520090C3
:200580009152009053454747455220656D57696E20560000E9E90090C9E9009075E7009005
:2005A0000000000000000000C9D9009075E40090A1E40090C1E30090E5E200900000000080
:2005C0001805000895E30090B9E20090000000005808000821EC0090F72E00900000000009
:2005E000000000000DEC009045EB0090000000000000000004000000D51400904FED009069
:20060000C9BB00907DBC00905DED00907DD90090E5D30090BDED009011ED0090AD250090CB
:2006200001ED00902FE000900000000001000000020000000300000004000000050000008E
:20064000060000000700000008000000090000000A0000000B0000000C0000000D0000004E
:200660000E0000000F000000F5ED0090F9ED0090E5ED00901F3300900000000078040000B5
:20068000EF080000660D0000DC11000050160000C21A0000331F0000A12300000C28000077
:2006A000742C0000D93000003A35000096390000EF3D00004242000090460000D94A0000AA
:2006C0001C4F0000585300008F570000BE5B0000E65F00000764000020680000316C000030
:2006E00039700000397400002F7800001C7C000000800000DA830000A98700006D8B000060
:20070000278F0000D692000079960000119A00009C9D00001BA100008EA40000F3A7000040
:200720004CAB000097AE0000D5B1000005B5000027B800003ABB00003FBE000035C1000076
:200740001BC40000F3C60000BBC9000073CC00001CCF0000B4D100003CD40000B3D6000035
:200760001AD900006FDB0000B4DD0000E7DF000009E2000019E4000017E6000004E8000014
:20078000DEE90000A6EB00005CED0000FFEE000090F000000EF2000078F30000D0F400001C
:2007A00015F6000047F7000065F8000070F9000068FA00004CFB00001CFC0000D9FC000094
:2007C00082FD000018FE000099FE000007FF000060FF0000A6FF0000D8FF0000F6FF000017
:2007E0000000010075D5009009EA00904DD60090000000000000000000000000F05B00207D
:20080000D05B0020B05B0020905B0020972F0090E35D00902358009000000000F9EB0090B2
:2008200049EC009089EA00906DEA00908F3E009000000000CDE0009001E1009001000000FC
:20084000E9ED0090EDED009035EC009055DF009000000000000000000DE60090B9E20090A5
:2008600087390090010000001DDF009049D7009095E5009095CA0090C1EC009000000000B5
:20088000F1ED009095C1009043008268521C8260426832B10268531C036011704168491E2D
:2008A000416070470B1F002170B59BB200E0491C994212DA441816782578B54202BF6578FB
:2008C0005678B542F3D1A5789678B54202BFE478D578AC42EBD1084670BD002070BD30B5AC
:2008E000CA788B7842EA0322C2830B794C798D79C97943EA042343EA054343EA0163DC074F
:2009000048BF5B1C036246F2634082421CBF47F26270824201D1002030BD0B2030BD2DE99E
:20092000F8430B686E4C8946A34218BF012019D104464868E06388686A4B984218BF022004
:2009400010D151F80C3F6848834219D18B68674DAB4218BF042005D151F80C3F644FBB421A
:2009600018BF052040F0BA808B6823608B69636001F10803496803EB010CDCF80010814294
:200980006FD1DCF808305B498B426FD1DCF80C50594B9D426FD1DCF81460584DDFF860E162
:2009A000DFF86081584FAE4238D1DCF81850BD4272D10FF2F01767620FF20027A762DCF88B
:2009C00010500CF114077F193D6845455FD1FD68E5603F692761DCF804500CF108072F4427
:2009E0003D68854203D000206061208314E0B86888423BD1F86898423DD1786970454BD150
:200A0000396907F114000844016841453FD1C1686161418921830089A08343E0764541D1E8
:200A20000FF288160CF1140E66620FF28816A662DCF81060B644DEF80060464527D1DEF8BC
:200A40000C606661BEF80A602683BEF80860A6830CF10806DCF804C06644D6F800E086458D
:200A600001D003203AE0B068884201D0062035E0F068984201D0072030E07069A8420BD1A1
:200A8000316906F1140008440168414501D0082024E08169B94201D00A201FE0C168E16030
:200AA0000069206115460FF21C1229464846FFF7F9FE80B208B9092010E0616969B1A26ADC
:200AC000814429464846FFF7EDFE80B208B90B2004E009F10401085A60830020BDE8F283F3
:200AE00052494646415649204C4953546864726C617669687374726C737472687669647305
:200B000061756473737472664D4A504710B504464FF4345221646163A163616BFFF7FFFE57
:200B200008B1012010BDE062606410BD10B50446E06A88B9206C0FF28C0260634FF43451FB
:200B4000FFF7B0FE616B60640844011D2046FFF7C6FE606C0C306064E08B46F26342216A38
:200B60002163904206D100F016F8636300F00FF8012010BD47F26272904206D100F00BF8F6
:200B8000A36300F004F8022010BD002010BD626419442046A3E6626C206C831801F1080086
:200BA000821870473030646300000000303164630000000030307762000000003031776222
:200BC000000000006D6F766900000000DFF800F069750090DFF800F079750090DFF800F019
:200BE000A9D60090DFF800F085CD009001B54FF6FF7301226946B24800F0BDFA009802BD06
:200C00007CB50A2578B1012001F082FC01F00CFE002802D101F095FE002840F090800120B8
:200C200001F0A6FC74E001F073FC01200FF2E82401F06EFC0121002001F0CCFCA048A14917
:200C400001604FF4E131416000218160C16001610C21416100218161C16100F033FA0FF2A6
:200C600000300FF2F02300900FF2C42221460FF28C2002F017F80FF2FC2221460FF2EC2011
:200C800002F010F802F0B3F9044602F0A8F9064603F004F98C49B4FBF1F3B6FBF1F2B0FBFC
:200CA000F1F10FF2E82001F0FDFF03F001FA010030D00FF20C3040E0002C2BD103F098FA63
:200CC00018B101460FF2503037E001F0ADFD18B101460FF2703030E001F033FE18B10146DE
:200CE0000FF2903029E07948016841F4807101600268D305FCD57648016841F080510160DC
:200D0000006800F0805000900099002001F044FC012076BD4FF488714FF4F07003F04EFAC3
:200D20000446642003F06AFB6D1EE8B20028C3D1002CC3D021460FF2B82001F0B3FF0020EA
:200D400076BD18B58BB0684603F070FABDF80240FFF73CFF844205DABDF80C40FFF73AFF50
:200D6000844204DB0020ADF80200ADF80C00594C2168BDF802008842BDF802006268B4BFB3
:200D8000091A411ABDF80C009042BDF80C00B4BF121A821A207A9DF80030984205D189B2FC
:200DA0000829DCBF92B2082A19DD9DF800002072002060729DF8000048B1BDF8021021600C
:200DC000BDF80C0060602046FFF708FF05E02046FFF704FF002020606060012000E000206A
:200DE0000CB010BDF8B5044603F01CFB3A48046003F01EFB21460FF2A82001F053FFC8201C
:200E0000FFF7F0FE354803F051FB354803F066FC642003F0F3FA2A4800F091F903F03AFFE4
:200E200000F067F82F4B30491868002220F40030186000F05DF800F05CF800F059F81A67C7
:200E4000BFF34F8F186820F480301860BFF34F8FDC6E43F6E072C4F34E35C4F3C90602EA35
:200E6000451747EA867048623046461E0028F8D12846451E0028F0D100F03BF81867BFF36C
:200E80004F8FDB6EC3F34E34C3F3C90502EA441646EA857048622846451E0028F8D1204632
:200EA000441E0028F0D100F024F8362003F0D9FE0E4803F04CFFBDE8F14003F0DEBE0000C2
:200EC000046200200048004040420F0000480258E0440258F4680020B840005858630020AC
:200EE000745F002014ED00E050EF00E0E06600200A60BFF34F8FBFF36F8F70470A0A25738C
:200F00003A20257320284275696C64202573206174202573290A0A0053544D3332483735F8
:200F200030422D444B5F4D4231333831000000004F7574204F662074686520426F782044AD
:200F4000656D6F6E7374726174696F6E2056312E302E300041707220203920323031390083
:200F600031363A34323A31380000000025733A2025730A005354204D656E75204C61756E27
:200F8000636865722056312E302E30004350552072756E6E696E672061742025644D487A96
:200FA0002C205065726970686572616C732061742025644D487A2F25644D487A0A000000E8
:200FC0004661696C656420746F20696E697469616C697A652074686520534452414D20213E
:200FE0002120284572726F72202564290A0000004661696C656420746F20696E69746961BC
:201000006C697A6520545320212120284572726F72202564290A00004661696C65642074EC
:201020006F20696E697469616C697A65205453202849542920212120284572726F72202521
:2010400064290A004661696C656420746F20696E697469616C697A652074686520515350EA
:201060004920212120284572726F72202564290A000000004661696C656420746F20636F5D
:201080006E66696775726520746865205153504920212120284572726F72202564290A0012
:2010A0000A4A756D70696E6720746F205375622D44656D6F2040307825303858202E2E2EB6
:2010C0000A00000038B5040009D004F17C05686808B900F022F800F025F8012801D1012002
:2010E00032BDA06A08B100F027F800F00EF822F02A0282602068016841F001010160FFE7AE
:201100002046BDE8324001F082B92068416821F49041416020688268704700212046297025
:2011200003F07CBF2421696020680168490849000160204600F07AB8204601F005B910B525
:2011400008B9012010BD00F17C042421616001680A68520852000A60036800211960036808
:2011600059600268916003F096FF0020E0606060A060207010BD2DE9FC47054605F17C043C
:201180006068884617469946202843D1B8F1000F14BF002F01203ED0217801293AD005F175
:2011A0005406012020700020E0602120606004F0D5F8378082467780A968B1F5805F04BF33
:2011C000286900281ABF40460027474680460DE0B8F1000F286812BF18F8011B37F8021BFF
:2011E000C1F3080181627288501E70807088CDF800905346002810D000228021284601F0E7
:2012000033F90028E4D0032005E0202060600020207000E00220BDE8F687002240212846F9
:2012200001F022F90028F0D0EDE700002DE9F84F86B004462768DFF8A0080026B046DFF808
:201240009CA84FF4807539680140A06801432069014360690143E0690143606E01433960D2
:201260007968E06821F440510143DFF8740879608742A1691CBF206A0143BA68DFF864084E
:2012800002401143B960F96A606A090940EA0111DFF854088742F96246D1DFF85008416DD9
:2012A00011F0380100F09B8008294CD010295BD0182900F06B80202900F07B80282900F0A7
:2012C000A2804FF08009DFF818B8DFF824085F45DFF82018DFF82028DFF82038DFF820C8BA
:2012E000DFF820E840F01284B9F1020F14D0B9F1040F00F0F580B9F1080F00F02481B9F188
:20130000100F00F05381B9F1200F00F0B881B9F1400F00F0EA81E1E002F0B8FC0146606A1C
:20132000002840F09E80C8E0DFF8DC078742DFF8BC070BD100F0EFFFC3D8DFE801F07904E8
:2013400015273A64BDE74FF00409BCE7DFF8782A97420CD100F0DAFFB3D8DFE800F0690479
:2013600005172A54ADE7EEE74FF00809ABE7DFF85C1A8F420DD100F0CEFFA2D8DFE801F09D
:201380005805040619439CE7EEE7DCE74FF0100999E7DFF83C2A97420ED100F0B7FFF2D832
:2013A000DFE800F04606050407318AE7EEE7DBE7C9E74FF0200986E7DFF8841A8F4211D134
:2013C000416D11F038010AD00829BCD01029CBD01829DBD02029ECD0282914D071E74FF0FD
:2013E000010970E7DFF85C2A97420FD100F08EFFF4D8DFE800F01D070605040861E7D8E734
:20140000C4E7B1E79FE74FF040095CE7DFF8381A8F420FD100F07FFF04D8DFE801F009084B
:20142000070605044DE7EEE7C3E7AFE79CE78AE7C14648E7DFF8A8269742F3D1806D00F004
:201440000700052804D8DFE800F009080706050437E7D8E7ADE799E786E774E74FF002099B
:201460005AE7012808BF022028D0022808BF042024D0032808BF062020D0042808BF0820F5
:201480001CD0052808BF0A2018D0062808BF0C2014D0072808BF102010D0082808BF202018
:2014A0000CD0092808BF402008D00A2808BF802004D00B2808BF284600D00120B1FBF0F0CE
:2014C000002800F0F586D4F804C00CEB4C01884204D34FEA0C31814280F0428100F0E6BE04
:2014E00000F011FF606A58B3012808BF022028D0022808BF042024D0032808BF062020D0FC
:20150000042808BF08201CD0052808BF0A2018D0062808BF0C2014D0072808BF102010D0B3
:20152000082808BF20200CD0092808BF402008D00A2808BF802004D00B2808BF284600D0C3
:2015400001200499BAE700F0DBFE606A58B3012808BF022028D0022808BF042024D0032850
:2015600008BF062020D0042808BF08201CD0052808BF0A2018D0062808BF0C2014D007284D
:2015800008BF102010D0082808BF20200CD0092808BF402008D00A2808BF802004D00B2891
:2015A00008BF284600D00120019987E7676ADFF83CB5DBF800B05FEA8B6B37D5DFF82C058E
:2015C00000685FB3012F08BF022128D0022F08BF042124D0032F08BF062120D0042F08BF64
:2015E00008211CD0052F08BF0A2118D0062F08BF0C2114D0072F08BF102110D0082F08BFAF
:2016000020210CD0092F08BF402108D00A2F08BF802104D00B2F08BF294600D00121C0F3EB
:20162000C1002AFA00F2B2FBF1F049E72FB3012F08BFDFF8180821D0022F08BFDFF810086D
:201640001CD0032F08BFDFF80C0817D0042F08BF704613D0052F08BFDFF8FC070ED0062F58
:201660000CBFDFF8F807072F08D0082F0CD0092F0ED00A2F15D00B2F21D0504623E7676AD8
:20168000002FFBD0012F01D108461CE7022F01D1104618E7032F08BFDFF8C407F9D0042F0E
:2016A00001D118460FE7052F08BFDFF8B807F9D0062F08BFDFF8EC0A02D0072F01D1604661
:2016C00001E7082F08BFDFF8E00AF9D0092F08BF4FF22440F4D00A2F08BF47F6122003D0F0
:2016E0000B2F01D143F60950EDE6606A002834D0012808BF4FF48040F6D0022808BF4FF496
:201700000050F1D0032808BF41F25550ECD0042808BF4FF48050E7D0052808BF40F6CC403F
:20172000E2D0062808BF40F6AA2018D0072808BF4FF4006013D0082808BF4FF480600ED0A6
:20174000092808BF4FF4007009D00A2808BF284605D00B2808BF802001D04FF40040B2E643
:2017600000230021B9F1020FDFF8407ADFF8402ADFF8400A12D0B9F1040F48D0B9F1080FFF
:2017800077D0B9F1100F00F0A680B9F1200F00F01C81B9F1400F00F04F8190E102F076FA31
:2017A0000146606A40B3012808BF022525D0022808BF042521D0032808BF06251DD00428D8
:2017C00008BF082519D0052808BF0A2515D0062808BF0C2511D0072808BF10250DD00828E5
:2017E00008BF202509D0092808BF402505D00A280CBF80250B2800D001256268B1FBF5F6A6
:201800000021500810EB062051EB1661A5E000F07AFD606A40B3012808BF022525D002289C
:2018200008BF042521D0032808BF06251DD0042808BF082519D0052808BF0A2515D006287E
:2018400008BF0C2511D0072808BF10250DD0082808BF202509D0092808BF402505D00A282E
:201860000CBF80250B2800D00125049800F062FD73E000F045FD606A40B3012808BF02258B
:2018800025D0022808BF042521D0032808BF06251DD0042808BF082519D0052808BF0A2512
:2018A00015D0062808BF0C2511D0072808BF10250DD0082808BF202509D0092808BF4025C2
:2018C00005D00A280CBF80250B2800D00125019800F030FD41E0666ADFF810E2DEF8009092
:2018E0005FEA89693BD5DEF8000046B3012E08BF022525D0022E08BF042521D0032E08BFB3
:2019000006251DD0042E08BF082519D0052E08BF0A2515D0062E08BF0C2511D0072E08BF89
:2019200010250DD0082E08BF202509D0092E08BF402505D00A2E0CBF80250B2E00D001256B
:20194000C0F3C1002AFA00F0B0FBF5F24FEA5C0010EB022051EB126162460023ABE086B37D
:20196000012E03D1DFF86009012161E0022E08BFDFF858095CD0032E08BFDFF8540957D013
:20198000042E08BFDFF84C0952D0052E08BFDFF848094DD0062E08BFDFF8400948D0072E59
:2019A0000CBFDFF83C09082E42D0092E08BF10463ED00A2E08BF38463AD00B2E08BF504679
:2019C00036D0DFF82009032132E0666A76B3012E2ED0022E08BF10462AD0032E08BFDFF88F
:2019E000080925D0042E08BF384621D0052E08BFDFF8F8081CD0062E08BFDFF8F40817D007
:201A0000072E08BF504613D0082E08BFDFF83C040ED0092E08BFDFF8380409D00A2E08BF76
:201A2000384805D00B2E08BF314801D0DFF8B00810EB5C0059413DE0606AB0B3012808BF4D
:201A40004FF4800233D0022808BF4FF400122ED0032808BFDFF8702A29D0042808BF4FF4E8
:201A6000801224D0052808BFDFF8602A1FD0062808BFDFF85C2A1AD0072808BF4FF4002205
:201A800015D0082808BF4FF4802210D0092808BF4FF400320BD00A2808BF4FF4803206D099
:201AA0000B2808BF4FF4004201D04FF4000212EB5C005941624603F057FC064601E04FF044
:201AC0000108A6F54070DFF80C1A884280F0EE832168CE60ECE300BFF369FFCF0090D00338
:201AE000000C0058FFF4FF11001001400044025800093D0080841E0040420F0020A10700CF
:201B000090D0030000127A0000440040D4F81CB04FF6F077BBF5004F40F0EF81B9F1000FB6
:201B200016D0B9F1010F44D0B9F1040F72D0B9F1080F00F0A080B9F1100F00F0D480B9F16A
:201B4000200F00F04781B9F1400F00F08D81C6E101F045FA0146606A40B3012808BF0225B5
:201B600025D0022808BF042521D0032808BF06251DD0042808BF082519D0052808BF0A252F
:201B800015D0062808BF0C2511D0072808BF10250DD0082808BF202509D0092808BF4025DF
:201BA00005D00A280CBF80250B2800D00125606891E001F01CFA0146606A40B3012808BF51
:201BC000022525D0022808BF042521D0032808BF06251DD0042808BF082519D0052808BFD7
:201BE0000A2515D0062808BF0C2511D0072808BF10250DD0082808BF202509D0092808BFB5
:201C0000402505D00A280CBF80250B2800D00125606860E000F077FB606A40B3012808BFA8
:201C2000022525D0022808BF042521D0032808BF06251DD0042808BF082519D0052808BF76
:201C40000A2515D0062808BF0C2511D0072808BF10250DD0082808BF202509D0092808BF54
:201C6000402505D00A280CBF80250B2800D00125606804992FE000F043FB606A40B30128D7
:201C800008BF022525D0022808BF042521D0032808BF06251DD0042808BF082519D0052816
:201CA00008BF0A2515D0062808BF0C2511D0072808BF10250DD0082808BF202509D00928F4
:201CC00008BF402505D00A280CBF80250B2800D0012560680199B1FBF5F1420802EB4102CA
:201CE000B2FBF0F6F9E0666ADFF8ECC7DCF800905FEA896B39D5DCF8000046B3012E08BFAC
:201D0000022525D0022E08BF042521D0032E08BF06251DD0042E08BF082519D0052E08BF7D
:201D20000A2515D0062E08BF0C2511D0072E08BF10250DD0082E08BF202509D0092E08BF5B
:201D4000402505D00A2E0CBF80250B2E00D001256168C0F3C1002AFA00F2B2FBF5F04A083B
:201D600002EB4002B2FBF1F6B7E056B3012E08BF504661D0022E08BF34485DD0032E08BFAB
:201D8000DFF8580758D0042E08BF314854D0052E08BFDFF84C074FD0062E08BF2D484BD081
:201DA000072E0CBF7046082E46D0092E08BF084642D00A2E08BF10463ED00B2E08BF184602
:201DC0003AD0DFF8E80337E000480040004C004000500040666A76B3012E2DD0022E08BF60
:201DE000084629D0032E08BFDFF8F80624D0042E08BF104620D0052E08BFDFF8EC061BD0EE
:201E0000062E08BF164817D0072E08BF184613D0082E08BF60460FD0092E08BFDFF8880363
:201E20000AD00A2E08BF4FF2244005D00B2E08BF47F6122000D0704600F05CFA4DE000BF28
:201E40000014014000780040007C00400048E8010024F400AAC2A20000A861005561510052
:201E60002A2C0A00801A0600606A90B3012808BF4FF400452FD0022808BF4FF480452AD0EB
:201E8000032808BF42F6AA2525D0042808BF4FF4005520D0052808BF41F698151BD00628E8
:201EA00008BF41F2545516D0072808BF4FF4805511D0082808BF4FF400650CD0092808BF37
:201EC0004FF4806507D00A280CBF4FF400750B2801D04FF4803500F027FAB6B201E04FF0B9
:201EE0000108A6F11000B84280F0E0813740C6F3420007432068C760DAE1B9F1000F16D0A2
:201F0000B9F1010F45D0B9F1040F74D0B9F1080F00F0A380B9F1100F00F0D180B9F1200F3A
:201F200000F04A81B9F1400F00F07D81B5E101F056F80146606A40B3012808BF022525D01A
:201F4000022808BF042521D0032808BF06251DD0042808BF082519D0052808BF0A2515D05B
:201F6000062808BF0C2511D0072808BF10250DD0082808BF202509D0092808BF402505D00B
:201F80000A280CBF80250B2800D0012500F0C8F9D1E001F02CF80146606A40B3012808BF0B
:201FA000022525D0022808BF042521D0032808BF06251DD0042808BF082519D0052808BFF3
:201FC0000A2515D0062808BF0C2511D0072808BF10250DD0082808BF202509D0092808BFD1
:201FE000402505D00A280CBF80250B2800D0012500F096F99FE000F086F9606A40B3012889
:020000040800F2
:2020000008BF022525D0022808BF042521D0032808BF06251DD0042808BF082519D0052892
:2020200008BF0A2515D0062808BF0C2511D0072808BF10250DD0082808BF202509D0092870
:2020400008BF402505D00A280CBF80250B2800D00125049900F064F96DE000F051F9606A79
:2020600040B3012808BF022525D0022808BF042521D0032808BF06251DD0042808BF08252C
:2020800019D0052808BF0A2515D0062808BF0C2511D0072808BF10250DD0082808BF202504
:2020A00009D0092808BF402505D00A280CBF80250B2800D00125019900F032F93BE0666AAA
:2020C000DFF81494D9F800B05FEA8B6B38D5D9F8001046B3012E08BF022525D0022E08BFD1
:2020E000042521D0032E08BF06251DD0042E08BF082519D0052E08BF0A2515D0062E08BF9E
:202100000C2511D0072E08BF10250DD0082E08BF202509D0092E08BF402505D00A2E0CBF49
:2021200080250B2E00D00125C1F3C1012AFA01F26068B2FBF5F101EB5001B1FBF0F6AAE08A
:202140006EB3012E08BFDFF8A40369D0022E08BFDFF89C0364D0032E08BFDFF898035FD077
:20216000042E08BF70465BD0052E08BFDFF8880356D0062E0CBFDFF88403072E50D0082E1B
:2021800008BF08464CD0092E08BF104648D00A2E08BF184644D00B2E08BF604640D05046E5
:2021A0003EE000BF1516050048E801000020A1070040420F0080841E666A8EB3012E08BF5F
:2021C00008462DD0022E08BF104629D0032E08BFDFF82C0324D0042E08BF184620D0052E02
:2021E00008BFDFF820031BD0062E08BFDFF8180316D0072E08BF604612D0082E08BFDFF808
:202200000C030DD0092E08BF4FF2244008D00A2E08BF47F6122003D00B2E08BF43F6095084
:2022200000F068F837E0606A88B3012808BF4FF480452ED0022808BF4FF4005529D003288F
:2022400008BF41F2555524D0042808BF4FF480551FD0052808BF40F6CC451AD0062808BFD2
:2022600040F6AA2515D0072808BF4FF4006510D0082808BF4FF480650BD009280CBF4FF4BD
:2022800000750A2805D00B2808BF802501D04FF4004500F049F8B6B201E04FF00108A6F171
:2022A0001000B84202D22068C66001E04FF0010804F1680001214180018000214160816005
:2022C000404607B0BDE8F08F000048E8000024F400AAC2A20000127A0000A86100556151AB
:2022E0000000093D000090D0002A2C0A00801A0600151605616800EB5100B0FBF1F67047BA
:20230000684601F009BD03A801F0D0BC406D00F0070005287047416D01F00701052970471C
:202320006068B1FBF5F17047606805EB5005B5FBF0F6704762680021B0FBF5F6500810EB5E
:20234000062051EB1661704790F82810CA0706D502685368C16A23F400330B43536090F85E
:2023600028108A0706D502685368016B23F480330B43536090F828104A0706D5026853684C
:20238000416B23F480230B43536090F828100A0706D502685368816B23F400430B435360BE
:2023A00090F82810CA0606D502689368C16B23F480530B43936090F828108A0606D5026861
:2023C0009368016C23F400530B43936090F828104A0610D502685368416C23F480130B432B
:2023E0005360416CB1F5801F05D15368816C23F4C0030B43536090F828100A0606D50168CB
:202400004A68C06C22F4002202434A607047F8B5044604F17C0500206FF07E47E86002F015
:202420009DFF0646206801680A0708D50097334600224FF40011204600F016F860B920684A
:2024400001684A070AD50097334600224FF48001204600F009F808B10320F2BD2020686003
:20246000A86000202870F2BD2DE9F04105460E4690461F46069C2868C1693140B1420CBF41
:202480000120002040451CD114F1010FF3D002F065FFC01B844201D3002CECD12868016804
:2024A00021F4D071016028682021826852085200826005F17C004160816000210170032073
:2024C00000E00020BDE8F0810055150000CC0C0000AA0A0000FD0F00004402585485450127
:2024E0000050C3005458140000350C000048E8010024F400AAC2A20000A861005561510061
:202500002A2C0A00801A06001516050048E8010070B5044686B0DFF8BC02DFF8BC620168C2
:2025200041F480710160026802F4807200920099016841F400710160006800F400700090CB
:20254000009901200FF2D02151F82450029003900320019501A9049056F8240003F058F841
:2025600056F824000122A9B203F0C9F906B070BD70B504460FF2A02050F82450964E56F8B5
:2025800024000022A9B203F0BAF9294656F82400BDE8704003F028B90FF27C218E4B51F82A
:2025A000201053F82000002207E00FF26C218A4B51F8201053F82000012289B203F09FB987
:2025C0000FF25421844A51F8201052F8200089B203F099B9F8B5054686B00E467D480168A4
:2025E0007E4C0FF23C2741F004010160006800F004000090300000990CD137F8150003231A
:202600000493002101900291039154F8250001A902F0FEFF012E19D1002037F81510039020
:2026200003226F480191049201A9029054F8250002F0EEFF0FF2EC10002230F815400F213E
:2026400020B202F0E5FA20B202F0FFFA07B0F0BD78B5644CB5B0204603F038FB00286ED181
:20266000E06C40B90FF2AC1168460A680121009203F0BAFCE0645C48002120605B486060EE
:202680007220A0600120E0604FF40040206100206061574DA0614FF40020E0610020206277
:2026A0000820069006A82691524E00F04DFF52484FF48052016821F040010160686C40F04C
:2026C00008006864696C01F0080100910098122101920020029103900321042004910590B0
:2026E00001A9304602F094FF4FF4005001A90190304602F08DFFA96D002241F08001A9657B
:20270000A86D00F0800000900099296841F08001296028680F2120F0800028605F2002F0F6
:2027200077FA5F2002F091FA00220F21602002F06FFA602002F089FA204603F011F936B0C1
:2027400070BD10B500F06FF8264C204603F05EF9FFF77EFFE06CBDE8104003F082BC77E7CB
:202760007FB500F030F88DF80C204FF0FF3103F051FC642100F042F803F080F90546F06CEB
:2027800003F06FFC15B12046FFF7DBFF7FBD7FB500F019F800224FF0FF318DF80C2003F039
:2027A00039FC4FF47A7100F029F803F0ECF90546F06C03F056FC15B12046FFF7C2FF9DF869
:2027C0000C0004B070BD0446064EF06C0D46704700000000E0440258805A0020885A00208E
:2027E000000011111C650020001C0058322791409C440258000C025810440258012203AB59
:20280000029101922A460093012321463046704701F0F4BD00000000040000000020000011
:202820000020000028007047DFF8E00178B5DFF8E0418FB02060204603F016FDC0B90021F7
:20284000204600F049F9032060600120A0601020E0601A2020614FF4007060610020A0611C
:202860008020E06140202062204603F0ABFC08B1012055E0204600F08BF800284FD1B7208E
:2028800000214FF44076009006962046079100F0C1F800F0C6F8002841D141F288352A4603
:2028A00000F046F800283AD100F03CF8002836D1ADF80000002208904FF040700A908521D6
:2028C00002200191099201A906920B9020460C920D920E922A46079603F0DFFCF8B900F00D
:2028E0002BF8E0B9204600F09CF8C0B9BDF8002040F60F708121019101A9024042F4004297
:2029000042F080022046ADF800202A4603F0C5FC28B92A466946204603F0FCFC00B104208E
:2029200010B070BD29462046AFE099202A4600906946204603F0B1BC2A466946204603F0A0
:202940003FBD80B590B04FF440700890ED214FF440500291059000214FF040700A910B902C
:2029600005214FF0004007910D9000204FF440624FF0804109926A460E9102A90F900190B3
:202980000090234803F0CCFD00B1012011B000BD70B5044641F28835662000219CB04FF49B
:2029A000807600902A460791204600F033F86946069603F072FC002823D1FFF7B6FF00286D
:2029C0001FD14FF44070662106902A460091FFF7AFFFB0B9FFF7A9FF98B9352000210E90E6
:2029E0002A4615910A4816911791139119911A911B910EA9149603F050FC10B9FFF792FF8B
:202A000000B101201CB070BD0000000000500052BC6500200891099105910B910C910D9168
:202A2000704738B5044694B04FF44070002206210C90069141F288350D9206A90E922046B1
:202A40000F920B921192129213922A4603F025FCC0B940F20220022100904FF040720190C6
:202A600000200490102003914FF480010290052005912B46069006A90F926A46204603F06D
:202A8000FFFC00B1012015B030BD10B50B4694B04FF4407105220C91022106924FF04072F9
:202AA0000F9210220B914FF48001029240F20112059102210024019203916A460D9406A906
:202AC0000E941194129413940094049403F0D8FC00B1012014B010BDF8B586B06C48816D87
:202AE0006C4C6D4D41F480418165826D02F4804205920599016841F480410160026822F46C
:202B000080420260436E43F020034366416E01F020010591059A416E41F040014166426E73
:202B200002F0400205920599416E41F008014166426E02F0080205920599416E41F02001BA
:202B40004166426E02F0200205920599416E41F020014166426E02F0200205920599416E85
:202B600041F020014166426E02F0200205920599416E41F040014166426E02F04002059220
:202B80000599416E41F080014166426E02F0800205920599416E41F080014166426E02F08C
:202BA000800205920599416E41F040014166426E02F0400205920599416E4FF4806241F078
:202BC00040014166406E00F04000059005990220009201900321002003910290092204928C
:202BE0006946204602F014FD4020012100900A22029169460492284602F00AFD4FF400609D
:202C0000002100900922029169460492234802F0FFFC042000900921214F04916946384698
:202C20004FF4007602F0F4FC0A20009604906946204602F0EDFC082109200091694604908F
:202C4000384602F0E5FC80210920009169460490204602F0DDFC00966946284602F0D8FCDB
:202C6000402069460090204602F0D2FC4FF4804128460091694602F0CBFC00220F215C2056
:202C800001F0C6FF5C2001F0E0FF07B0F0BD00BF7C4402580014025800180258000C0258AF
:202CA000001C02580EB4C0B5024603A800210190009101AB0121044878440C3003F038FDF7
:202CC00006BC5DF810FB00BF29A100002DE9F8430400884656D0DFF8A063306800F00F008F
:202CE000404502D200F0DEF84CD12078DFF87C53410706D52069A96901F07001814200F087
:202D0000CAF82078010706D56069E96901F07001814200F0B9F82078C10606D5A069E96900
:202D200001F4E061814200F0A8F82078810606D5E069296A01F07001814200F097F82078F8
:202D4000810706D5E068A96901F00F01814200F086F82078C1076ED5A969A06821F47061E1
:202D60000143A9616068022802D129688A0308E0032802D12A68910103E0012803D12968A7
:202D8000CA0503D469E02A68530766D5296941F28939C90840EAC100286102F0DFFA074639
:202DA0002869616800F03800B0EBC10F43D002F0D5FAC01B4845F3D303203AE02078410707
:202DC00006D52069A96901F07001884200F063F82078010706D56069E96901F07001884244
:202DE00000F052F82078C10606D5A069E96901F4E061884200F041F82078810606D5E06998
:202E0000296A01F07001884200F030F800F054F8AA69DFF86812C2F30322895CDFF8502233
:202E200001F01F01C84010600120BDE8F24303F019BFBDE8F2832078810706D5E068A969D4
:202E400001F00F01884200F00AF8306800F00F008045B3D200F026F8B0D00120E9E704D27F
:202E6000AA69120940EA0210A861704704D22A6A22F0700210432862704704D2EA6922F467
:202E8000E0621043E861704704D2EA6922F070021043E861704704D2AA6922F070021043DD
:202EA000A86170473168090948EA01113160326802F00F024245704738B56C4B6D4819691C
:202EC00011F0380104D010290AD018290AD06EE01A6894066CD51968C1F3C101C84032BD1D
:202EE000684832BD9C6A996ADD6A5A6B05F00105C1F30511C2F3CC025543002900EE105ABD
:202F0000B8EE400A51D014F0030400EE901AF8EE600A02D0022C25D027E019689FED4F1A3B
:202F200020EE010A8A060BD51968C1F3C101C84001EE100A186BB8EE411A00F03AF808E072
:202F4000196B9FED471AC1EE200AC1F3080101EE101AB8EE411A31EE000AB7EE001A30EE4A
:202F6000010A11E09FED3F1A01E09FED3F1A186BDFED3A1A00F01DF8B8EE411A00EE211AD8
:202F8000B7EE000A31EE000A186B20EE800AC0F34620401C00EE900AF8EE600A80EE200A59
:202FA000BCEEC00A10EE100A32BD002032BD364832BDC1EE200AC0F3080001EE100A7047C6
:202FC00010B500F06BFF314A2C49136803F00F03CC5C2F4904F01F04E040086010BD80B521
:202FE000FFF7EEFF00F00FF8C3F3021206E080B5FFF7E6FF00F007F8C3F30222895C01F098
:203000001F01C84002BD234A1C491368704710B53F2202601A4A136803F0070343609468C2
:2030200004F470648460936803F00F03C360946804F070040461D36803F070034361D46873
:2030400004F4E0648461126902F07002C2610A48036803F00F030B6010BD0000000000391A
:203060000024744C20BCBE4B0024744A00440258985A00200090D00300200052BCC9000893
:203080001044025840787D0100093D00184402589C5A00201C4402582DE9F041050019D04B
:2030A000287841F28938DFF89464C10750D53069B16A00F03800102805D0182804BF01F0E3
:2030C0000301022908D13168880341D56868002840F0238101202FE26868B0F5803F04D1A7
:2030E000306840F4803030601DE040B9316821F480313160326822F48022326013E0B0F562
:20310000A02F08D1306840F480203060316841F48031316007E0326822F480323260336885
:2031200023F480233360686868B102F017F9044631688A0300F1F18002F010F9001B4045EA
:20314000F6D30320F8E102F009F904463068810340F1E38002F002F9001B4045F6D3F0E78F
:2031600002F0FCF8C01B0328C0F0F680E9E702F0F5F8C01B0328C0F02F81E2E770682969F5
:2031800020F0FE4016E0E868B8B1316821F019010843306002F0E2F807463068420700F1A8
:2031A000368102F0DBF8C01B0328F6D3C9E720F0FE40296940EA016034E130684008400074
:2031C000306002F0CBF8074631684A0740F1D48002F0C4F8C01B0328F6D3B2E7E869C0B116
:2031E000316841F08001316002F0B8F807463268D00500F1198102F0B1F8C01B0328F6D3A0
:203200009FE7F068296A20F07C5040EA0160F060D4E0306820F08000306002F09FF8074644
:203220003168CA05F4D502F099F8C01B0328F7D387E7706F40084000706702F08FF8074698
:20324000716F880740F1CC8002F088F8C01B0328F6D376E7306820F48050306002F07EF870
:20326000074631688A0440F1E58002F077F8C01B0328F6D365E702F071F8001B6528C0F015
:20328000E4805EE708B9306F09E00528306F06D140F004003067316F41F0010105E04008CE
:2032A00040003067316F21F004013167A86860B102F054F80746316F880700F1D38002F0D8
:2032C0004DF8C01B4045F6D33BE702F047F80746306F810740F1C68002F040F8C01B4045B8
:2032E000F6D32EE702F03AF8001B0328C0F0CD8027E702F033F8401B0328C0F0188120E788
:2033000002F02CF8054631688A0140F1148102F025F8401B0328F6D313E7287841F204042F
:20332000810729D53069B16A10F0380005D0182808BF11F0030F7FF426AFE86831684A07AA
:2033400002D500283FF4C6AE326822F019021043306002F003F80746306841077FF500AFE0
:2033600003F0EBFCA042BFF409AF7168286921F47C3141EA003171602978CA061ED53069D0
:20338000B16A00F03800082806D0182804BF01F0030101297FF422AF3068C10503D5E969F6
:2033A00080297FF497AE03F0C8FCA0423FD27068296A20F0F84040EA816070602A781007BB
:2033C0000ED5686900283FF434AF716F41F00101716701F0C3FF0746706F81077FF5C7AEC0
:2033E00029788A0626D5A86900283FF433AF316841F48051316001F0B1FF0446326890040A
:2034000018D401F0ABFF001B0328F7D399E603F094FCA0427068BFF4CAAE20F47C302969DC
:2034200040EA01307060A7E703F087FCA042BFF4E8AEBCE72878420714D5414F396841F457
:203440008071396001F08AFF04463868C2057FF512AFA86801287FF415AF306F40F0010042
:20346000306723E7686A002865D0316901F0380118293FF42FAE0228306820F08070306015
:203480007FF43EAF01F06AFF044631688A013FF529AFB26A2B480240A86A0243E86A42EA52
:2034A0000012B262686B296BAA6B401E4002491EC1F30801521E00F47E4012040143E86BD7
:2034C00002F4FE021143401E000600F0FE4001433163F06A40084000F062716BA86C6FF3B2
:2034E000CF0141EAC0017163F16A286C21F00C010143F162F16A686C21F002010143F162BE
:20350000F06A40F48030F062F16A41F40031F162F06A40F48020F062F16A41F00101F162A6
:20352000306840F08070306001F018FF054631688A017FF5DEAE0020BDE8F08100440258F8
:20354000004802580CFCFFFF2DE9F047044600262068B046DFF84C58010122D5616E49B14B
:20356000B1F5801F0BD0B1F5001F15D0B1F5401F09D014E0EA6942F40032EA6105E00221A1
:2035800000F07DFB064630000AD1296C606E21F440110143296404E000F073FBF2E7012690
:2035A000B0462068C1051CD5616D042917D8DFE801F0030E1205050000F056FB30000FD1B6
:2035C000296C606DC90840EAC101296409E000F055FB0646F2E7002100F04CFBF9E7012692
:2035E000B0462068810520D5A16D49B1402912D0802914D0C02918BFB1F5807F02D012E0C9
:2036000000F032FB30000FD1296CA06D21F4E0710143296409E000F031FB0646F2E7002159
:2036200000F028FBF9E70126B046206804F18407410523D5396A61B1B1F5001F14D0B1F530
:20364000800F15D0B1F5C00F18BFB1F5000F02D012E000F009FB30000FD1A96C386A21F461
:2036600060010143A96409E000F008FB0646F2E7002100F0FFFAF9E70126B0462068010502
:2036800023D5796A61B1B1F1807F14D0B1F1007F15D0B1F1407F18BFB1F1806F02D012E025
:2036A00000F0E2FA30000FD1A96C786A21F0E0610143A96409E000F0E1FA0646F2E700219A
:2036C00000F0D8FAF9E70126B046206881011AD5A16C41B1102904D020290DD0302902D0D5
:2036E0000FE000F0C1FA30000CD1E96BA06C21F030010143E96306E0022100F0C0FA0646F2
:20370000F1E70126B0462068C10423D5E16D61B1B1F5805F14D0B1F5005F15D0B1F5405F77
:2037200018BFB1F5804F02D012E000F09DFA30000FD1296CE06D21F4E0410143296409E010
:2037400000F09CFA0646F2E7002100F093FAF9E70126B0462068810422D5216E91B1B1F5A8
:20376000803F0BD0B1F5003F15D0B1F5403F1CBFB1F5802FB1F5A02F04D00FE0012100F046
:203780007EFA064630000AD1296C206E21F4E0210143296404E000F06CFAF2E70126B04620
:2037A0002068410422D5B96A91B1B1F1805F0BD0B1F1005F15D0B1F1405F1CBFB1F1804F11
:2037C000B1F1A04F04D00FE0012100F058FA064630000AD1A96CB86A21F0E0410143A96420
:2037E00004E000F046FAF2E70126B046206801041AD5E16E41B1B1F1805F03D0B1F1005FAD
:203800000BD00FE000F030FA30000CD1296CE06E21F040510143296406E0012100F02FFA40
:203820000646F1E70126B0462068C10118D5616C032913D8DFE801F004020D0400F014FA5F
:2038400030000CD1E96B606C890840EA8101E96306E0022100F013FA0646F1E70126B0466B
:20386000206841021FD5DFF87096D9F8001041F48071C9F8001001F071FD8246D9F80000DC
:20388000C20500F1BC8101F069FDA0EB0A006528F4D306E001F062FDA0EB0A004845C0F0EB
:2038A000CE810326B0462078C10728D5A16F69B1082907D010291DD018291CBF202928292F
:2038C00004D01AE0012100F0DAF90646300015D1696CA06F21F03801014369640FE0286815
:2038E00020F47C502860296EFA6AC2F30B0211432966D8E700F0BDF9E7E70126B0462078D8
:20390000810719D5616F052914D8DFE801F0070310070707012100F0B2F9064630000AD14C
:20392000696C606FC90840EAC101696404E000F0A0F9F2E70126B0462078410719D5F968C7
:20394000052914D8DFE801F0070310070707012100F095F9064630000AD1A96CF868C90829
:2039600040EAC101A96404E000F083F9F2E70126B0462078810621D5B96889B1B1F1805F17
:203980000BD0B1F1005F14D0B1F1405F1CBFB1F1804FB1F1A04F03D00EE000F06FF90646E4
:2039A00030000AD1696CB86821F0E0410143696404E000F066F9F2E70126B04620784106BC
:2039C00021D5796989B1B1F5806F0BD0B1F5006F14D0B1F5406F1CBFB1F5805FB1F5A05F12
:2039E00003D00EE000F04AF9064630000AD1A96C786921F4E0510143A96404E000F041F9E1
:203A0000F2E70126B0462078010621D5B96989B1B1F5005F0BD0B1F5804F14D0B1F5C04FD1
:203A20001CBFB1F5004FB1F5204F03D00EE000F025F9064630000AD1A96CB86921F460418F
:203A40000143A96404E000F01CF9F2E70126B046207801070FD5D4F88000B0F5805F05D10C
:203A600000F00FF938B14FF0010804E0696C21F44051084368642078C2060ED53869B0F51E
:203A8000807F05D100F0FDF838B14FF0010804E0A96C21F440710843A8642068020319D5AA
:203AA000F96931B1B1F5803F0FD0B1F5003F03D00EE000F0E4F8064630000AD1A96CF8693F
:203AC00021F440310143A96404E000F0DAF8F2E70126B046206841031DD53968B1F5801FCF
:203AE00006D0B1F5001F10D0B1F5401F04D010E0E96941F40031E96130000BD16A6C3868FE
:203B000022F4401202436A6405E000F0B2F80646F2E70126B0462068C10317D5E16C19B11A
:203B2000B1F5803F0BD00FE000F09EF830000CD1E96BE06C21F480310143E96306E00221C4
:203B400000F09DF80646F1E70126B0462068810004D500F096F808B14FF001082068810332
:203B600018D5E16F59B1B1F5807F06D0B1F5007F18BFB1F5407F02D00AE000F075F83000D9
:203B800007D1696CE06F21F440710143696401E00126B0462068C10205D5296C206F21F0FA
:203BA0000041014329642068C10005D52968386B21F48041014329602068810205D5296C7F
:203BC000A06E21F08071014329642068410007D5296821F4004129602A68786B02432A60AB
:203BE0002068002805D5E96B206D21F040510143E9635FEA080018BF0120BDE8F087300093
:203C00007FF450AE286EF96A00F4407001F4407188420BD0286E2A6E42F480322A66296E0E
:203C200020F4407021F4803129662866F86AB0F5807F08D101F092FB824641F28939296E2C
:203C400088077FF527AEF86A00F44072B2F5407F7FF445AE2968DFF83C3403EA101321F4BB
:203C60007C51194329603EE6E86940F40030E8617047012104F1240000F08BB90021201DEC
:203C80002CE1022104F1240000F083B980B5FFF797F9DFF80C24DFF80C141368C3F30212B1
:203CA000895C01F01F01C84002BD000038B500F0A0F8DA6B05F01005C1F3053100F0A6F80B
:203CC00026D000F09CF802D0022C0FD011E000F061F805D500F057F8996B00F06EF802E0FC
:203CE0009A6B00F0CBF800F05FF807E09FED751A01E09FED751A996B00F06AF8996B00F07D
:203D0000AAF8996B00F098F8996B00F088F801E000F0BEF834E0000038B500F06AF85A6C69
:203D200005F48075C1F3055100F070F826D000F066F802D0022C0FD011E000F02BF805D532
:203D400000F021F8196C00F038F802E01A6C00F095F800F029F807E09FED5A1A01E09FED6B
:203D60005A1A196C00F034F8196C00F074F8196C00F062F8196C00F052F801E000F088F86E
:203D800080ED020A31BD1968DFF80C23C1F3C101CA40704719689FED4D1A20EE010A8A06E1
:203DA0007047000010440258B8EE411A31EE000AB7EE001A30EE010A704701EE102AB8EE06
:203DC000411AC1EE200AC1F3080101EE101A7047DFED3E1AC1EE200AC1F3080101EE101A4F
:203DE000B8EE411A00EE211AB7EE000A31EE000A7047DFF8B4329C6A996ADD6A704714F042
:203E0000030400EE901AF8EE600A7047C2F3CC025543002900EE105AB8EE400A7047C1F305
:203E2000066100EE901AF8EE600A70EE810A80EE200ABCEEC00A7047C1F3064100EE901AF4
:203E4000F8EE600A70EE810AC0EE200AFCEEE00AC0ED010A704720EE800AB7EE001AC1F303
:203E6000462100EE901AF8EE600A70EE810AC0EE200AFCEEE00AC0ED000A70479FED141A36
:203E8000C1EE200AC2F3080201EE102A7047000001609FED100A41607047000010B5FFF790
:203EA0000BF8DFF8F831DFF8FC211C68DFF8FC11C4F30323D25C02F01F02D040086008689D
:203EC00010BD000020BCBE4B0024744A000000390024744C0000000000480258F8B500F0F2
:203EE000D1F801D10120F2BD296821F08061296001F034FA07462868020121D501F02EFA3D
:203F0000C01B0328F7D30320F2BD012C04D1E86A40F48010E86203E0E96A41F40011E962D6
:203F2000286840F08060286001F018FA044629680A012CD401F012FA001B0328F7D3E2E79A
:203F4000A86A316820F47C3040EA013000F082F8A863E96A706921F0C0010143E962E96A46
:203F6000B06921F020010143002CE962E86A20F01000E862E96B00F067F8E963E96A41F00C
:203F80001001E962C1D1E86A40F40020C2E70020F2BDF8B500F076F801D10120F2BD2968D7
:203FA00021F08051296001F0D9F907462868820021D501F0D3F9C01B0328F7D30320F2BD1F
:203FC000012C04D1E86A40F40000E86203E0E96A41F08071E962286840F08050286001F063
:203FE000BDF9044629688A002CD401F0B7F9001B0328F7D3E2E7A86A316820F07C7040EA5B
:020000040800F2
:20400000015000F027F82864E96A706921F440610143E962E96AB06921F400710143002CE1
:20402000E962E86A20F48070E862696C00F00CF86964E96A41F48071E962C1D1E86A40F423
:204040008000C2E70020F2BDF0696FF3CF0141EAC0017047A862B1687068F268491E490233
:20406000401EC0F30800521E01F47E4112040843316902F4FE021043491E090601F0FE4119
:20408000084370470646084DA86A0C4600F0030003287047CFFFFF000090D003184402585E
:2040A00020440258BCC9000800440258985A002010B500F036F80220A0630720E06304206F
:2040C0002064072060640220A0640021E06420650120A0600020E06004202061102060614A
:2040E0004020A0614FF4C070E061002020624FF4006060624FF48050A0620020E062201DF0
:2041000000F0DFFF04F13801201D02F02FFE002819BF0120207040F2036000F006F820787B
:2041200010BD244C2448606070477CB5044600200090204D0121012069650821E865002020
:20414000A9654FF6FF762866324600F02EF8012000F054F908200221A8650120E865002037
:204160006965324600F020F80320324668650820A86505F15401E86500202866281D02F0D7
:204180001BFE4FF40C7004210090012069650821A9653246E865009800F006F82146281D75
:2041A000BDE87C4002F022BE286605F15401281D02F002BEF46200204041005270B58B4EB5
:2041C0008B4DA98000246880316870208847716870208847512808D17020AE6068700820B2
:2041E0002870F1687020884700E00324204670BD0021042000B585B0032202917D49009098
:204200007D4801916946039201F002FA00220F21082000F0FDFC082000F017FD744948780A
:2042200089688A699047002005B000BD2DE9F04790B0002506466E4CA16803950295607869
:2042400001950A6990470028307000F0A080002704AD0DF11C090DF1280A0DF1340804E05D
:20426000002100E00321C1767F1C3078874280F08A8004A8A36800EB470207A800EB47018F
:204280006078D3F814C0E0472078012807D139F8171028F8171035F817102AF81710810723
:2042A00005D539F81710C1F5805128F81710410705D535F81710C1F580512AF817100007B1
:2042C00007D539F817002AF8170035F8170028F8170004F10C0038F8171050F8270004F14A
:2042E0002002884234BFA1EB000CA0EB010C52F827003AF81720904234BFA2EB000EA0EBEA
:20430000020E1FFA8EF010FA8CFCBCF1060F07DB04F10C0040F8271004F1200040F82720BC
:20432000607806EB4703702802D159809A810FE0618804F10C0252F8272004F1200C5143EA
:20434000090B5980A1885CF827205143090B998101A902AB009103AA394602F03BFEF019A2
:20436000039A8275029980F820100199032903D8DFE801F00507040376E771E772E70121CA
:2043800071E702216FE7304600F005F80546284610B0BDE8F08738B5044600200090144A0F
:2043A00050786946002502F008FE009961B110290CD014290CD018290CD01C290CD04029E9
:2043C0000CD049290CD00EE0A1620DE0012008E0022006E0032004E0042002E0052000E0B2
:2043E0000620A06200E00125284632BD0000002020670020000011110018025838B50446A0
:2044000000F0ACFF14F1010F054602D004480178641800F0A3FF401BA042FAD331BD00BF45
:204420008C5A00200548016841F48071016070470248016821F4807101607047004802580F
:2044400038B5040001D1012032BD04F15805687820B900212046297000F097FE02216970DD
:2044600021680A68606822F4403202430A6021684A6BA068D20840EAC2024A6321680A6C88
:20448000E068920B40EA82320A642068416B2269636921F4401141EA025141EA4351416319
:2044A0000020686001206870002032BD10B504003AD0DFF83C010168CA0607D5206802681E
:2044C000D1071FD5204600F031F868BB21680020086021683F2088602268002010612168E9
:2044E00088612268D0612168486222685063204600F060FE04F158000021416041700170C3
:20450000002010BD416A8A0605D50021204600F031F848B9DAE7C0698106D7D50121204653
:2045200000F028F80028D1D0012010BD70B500F01BF821F0050141F00401016000F00EFFE1
:20454000054620680168CA0707D500F007FF401BB042F6D300F038F870BD0168012221F478
:204560000C5100F029F870BD044640F2E936206801687047F8B500F033F842F0040200F16C
:204580002405026004BF206800F11C0500F0E6FE06462968880607D500F0E0FE801BB842B5
:2045A000F7D300F011F8F2BD20680122016821F4645100F001F8F2BD016004F158004270B3
:2045C000002202700020704704F158000322416841F0200141604270002202700320704742
:2045E00004460129206840F2E937026870470000D4440258F8B5040001D10120F2BD04F192
:20460000A005687820B900212046297000F0E4FD022169702068816921F0704181612168B0
:204620008A696368A0680343E0680343206903431A438A612168DFF88C058A6802408A60BA
:2046400021688A68A669636946EA034632438A602168CA680240CA602168CA68266AE3696E
:2046600046EA03463243CA6021680A6902400A6121680A69A66A636A46EA034632430A6147
:2046800021684A691040486120684169236BE26A43EA02431943416104F1340023684178FC
:2046A0008278DE6A06F07F46DE622368120442EA0121DF6A007801433943D9622068416BDE
:2046C00041F0060141632068826942F00102826100206860012068700020F2BD10B50446B4
:2046E00000F0F0FD04F1A0000021416041700170002010BDF8B5044604F1A0052068866B6D
:20470000476B71070ED579070CD5416B21F004014163226804200421D063686840F00100BE
:2047200000F03CF8B0070FD5B8070DD52068416B21F002014163226802200421D063686859
:2047400040F0020000F02AF806F0010007F0010108420DD02068426B5208520042632168EF
:204760000120C863687000202870204603F02FF8300712D5380710D52068416B21F008014D
:20478000416322680820D06301206870002028702046BDE8F24003F025BBF1BD68602046F3
:2047A00069700021297003F01EBBF8B500F041F901D10220F2BD00F044F900F036F922684A
:2047C00001210020516269702870F2BD30B500F1A0031C78012C01D1022030BD00F061F95F
:2047E000046804EBC2128432D160006801214162002059700021197030BDF8B500F1A004B4
:204800002578012D01D10220F2BD0126002526700226667034265E430644954218D20F68CD
:20482000D6F848C027F07F47BCF1060FD0F800C00CEBC31C12BF47EA056705EB051E47EAF3
:204840000E67091D6D1C0CF1840CCCF84070E4E70120607000202070F2BD10B500F0E0F88B
:2048600001D1022010BD00F021F841F0020109E010B500F0D5F801D1022010BD00F016F810
:2048800021F002011960006801230021436200205370117010BD10B500F0C2F801D10220A5
:2048A00010BD00F003F841F01001EBE70124147002245470036803EBC11353F8841F7047C7
:2048C00010F8A01F012901D1022070470122DFF8F8120270022242700A6842F48032FFE7B0
:2048E0000A6001214170002101700020704770B5054605F1A0063078012801D1022070BD14
:20490000342001245843347002247470284440F8381F846A826061184160C16A8A180146DC
:20492000C2601A46284600F0CFF829680120486293E038B500F01AF801D1022032BD00F03F
:204940000CF841610146204600F0BEF822680121002051626970287032BD34200123504374
:204960002B7002236B70204438307047044604F1A00528780128704738B5FFF7F7FF01D10A
:20498000022032BDFFF7E9FF4162DBE7F0B500F068F801D10220F0BD00F07AF80BB90423E0
:2049A0000EE0012B08BF03230AD0042B18BF022B03D0032B18BF072B01D1022300E00123DE
:2049C00000F054F8DFF804522F6847F001072F6000F056F80121D062286840F0010028602E
:2049E0000020617000212170F0BD10B500F018F801D1022010BD00F00CF8640864005C635E
:204A0000DFF8CC3119600068416B41F00101416355E0012414700224547003685C6B7047AD
:204A200000F1A0021378012B70473A46314620464AE0044604F1A00528780E461746012890
:204A40007047342001217843297002213422697031462044383003F0D7B97070002030701D
:204A600070BD00F1A0042378012B70470568594305EBC2158435EE6A6FF31C46EE6270474A
:204A8000006800EBC2128432D06A40EA0140704734230125534325700225657003449B6CEB
:204AA000704701251D7002255D70046804EBC2148434E56805F07F45E5607047016001202B
:204AC00050700020107010BDF0B503684C68002703EBC212D868C0F30B4004198432506833
:204AE00000F4704050600D68D868C0F30B4045196D1C45EA04445460C868DC689568C4F375
:204B00000A04201805F4704595608C68DB68C3F30A031C19641C44EA004090601069C0085E
:204B2000C00010610B69136101F1300358789C788D69966997611B7843EA002040EA044018
:204B400040EA056090615069000A000250614B695361D3691F480340D361CC69086A0443EF
:204B6000D461906A97624B6A9362086908B904230EE0012808BF03230AD0042818BF0228FF
:204B800003D0032818BF072801D1022300E00123D06A00F0E020D0628C6A4D6808685C4300
:204BA0002D1A6B43DB1D43EA0443D362106BC00AC0021063C96A1163106840F00100106025
:204BC000F0BD000000F800F0181000502410005040100050F8F8FFFF0901020081B002D4A3
:204BE0004B48815405E04B4A00F00F00104400F8041C01B07047484A4FF6FF0113680002AC
:204C000000F4E0600B401843444908431060704738B5414B1C68C4F30223C3F10704052CF2
:204C200028BF04241D1D072D34BF0023DB1E012505FA04F4641E2140994005FA03F35B1EA1
:204C40001A401143BDE83440C6E7010008D4012200F01F0002FA00F0314A490942F82100BD
:204C60007047010008D4012200F01F0002FA00F02C4A490942F821007047BFF34F8F2649A9
:204C800029480A6802F4E06202430A60BFF34F8F00BFFDE7BFF35F8F24480022016821F46B
:204CA0008031016002677047204940F001000867086840F480300860BFF34F8FBFF36F8FBD
:204CC000704710B541781A4A11600178E1B143685360C37A017B447B1B0643EA0173817A2C
:204CE00043EAC143817B43EA8443C47B43EA4143417A43EA0443047A007843EA012343EA00
:204D000044030343936010BD00205060906010BD00E400E018ED00E00CED00E00000FA0538
:204D200000E100E080E100E00400FA0524ED00E098ED00E038B5040001D1012032BD00F055
:204D40003FF818B900F038F800F062F920E070B500F03AF802BF0D6A40F24446354200F03E
:204D600025F803F094F81DE00168DFF87000CA6842F00102CA608A680240062A18BFB2F577
:204D8000803F03D0086840F00100086000207047022169702068211D00F0D3F8012068702B
:204DA000002032BD00206070207070BD03D10A68520852000A60704700212046297070474D
:204DC00004F13C056878704700F13C0402216170016841F211130A6A1A4270470700010092
:204DE00010B50446206801698A0715D5C268910712D56FF00201016101212177806910F027
:204E0000030F204602D003F043F803E003F041F800F094F800202077206801694A0715D5AB
:204E2000C268510712D56FF00401016102212177806910F4407F204602D003F029F803E0AD
:204E400003F027F800F07AF800202077206801690A0715D5C268110712D56FF00801016147
:204E600004212177C06910F0030F204602D003F00FF803E003F00DF800F060F8002020772E
:204E800020680169CA0615D5C268D10612D56FF01001016108212177C06910F4407F204699
:204EA00002D002F0F5FF03E002F0F3FF00F046F80020207720680169CA0708D5C268D107EC
:204EC00005D56FF001010161204601F004FF206801690A0608D5C268110605D56FF0800101
:204EE0000161204602F0D6FF20680169CA0508D5C268110605D56FF480710161204602F05C
:204F0000CAFF206801694A0608D5C268510605D56FF040010161204602F0BEFF2068016945
:204F20008A060AD5C268910607D56FF0200101612046BDE8104002F0B0BF10BD204602F0A2
:204F4000ADBF2DE9F043DFF8A870D0F800C0B842DFF8A030DFF8A040DFF8A050DFF8A0602F
:204F6000DFF8A0E018BFB0F1804FDFF89C80DFF89C9007D0484518BF404503D0704518BF7E
:204F8000B0420ED1B8424A682CF0700C18BFB0F1804F42EA0C0C0CD048451CBF40457045F3
:204FA00007D0B04218BFA84203D0A04218BF984204D1CA682CF4407C42EA0C0C4A692CF00B
:204FC000800CB84242EA0C0202608A68C2620A6818BFB042826204D0A8421CBFA042984225
:204FE00001D10969016301214161BDE8F0830000000001400048014000440140004001405D
:2050000000040140000C0040000800400004004070470268531C03601170704718B5B5B016
:20502000BE4C2068012200F02DF8206800F02AF800210692249106A8FEF786FAA1684FF42F
:20504000806241F48021A160A068B54C00F4802000900099022001920121029003910320B1
:2050600007210490059101A9204600F0D1FA4FF40060072101902046059101A900F0C8FA5F
:2050800036B010BD40F002002060216801F0020100910098704710B5A248A14C02684FF405
:2050A000806142F480220260036823F48023036000F051F920464FF40061BDE8104000F024
:2050C00093BB80B586B09848016841F480510160026802F4805200F054F841F00801C1609E
:2050E000C26802F0080200F04CF841F01001C160C26802F0100200F044F841F02001C16026
:20510000C26802F0200200F03CF841F04001C160C26802F0400200F034F8022241F080014A
:20512000C160C06800F0800005900599012001920321029003910C204CF203710490009182
:2051400069467A4800F064FA4FF6837269460092774800F05DFA4FF63F006946009075488F
:2051600000F056FA48F2331173480091694600F04FFAE02069460090704800F049FA07B05C
:2051800000BD05920599C168704780B566480022016841F010010160006800F01000009034
:2051A00000995A200521FFF733FD5A20BDE80240FFF74BBD80B55A20FFF753FD604801682B
:2051C00041F010010160026822F010020260836D23F01003836501BD80B586B04F484168D5
:2051E00041F008014160426800F05BF841F008010160026800F055F841F080010160026828
:2052000002F0800200F04FF841F480710160026802F4807200F047F841F40071016002686A
:2052200002F4007200F03FF84DF2032241F480610160006800F480600590059902200092E1
:2052400000210190029101200E210390049169463C4800F0DDF90020012102900E204FF651
:20526000FB72039102230490009269460193364800F0CEF9FC2000F01AF8344800F0C8F91F
:205280004FF4007000F013F82C4800F0C1F9002207215820FFF7BCFC5820FFF7D6FC07B0DB
:2052A00000BD02F00802059205990168704702210090012001910E21002203900491694652
:2052C0000292704738B558201E4CFFF7CAFC4DF2032500F03FF800F03DF84FF6FB711A4832
:2052E00000F082FAFD21194800F07EFA4FF40071124800F079FA80210C4800F075FA14483A
:20530000016841F008010160026822F008020260836D23F00803836531BD0000E04402583F
:205320000004025890440258D4440258000C0258001002580014025800180258001C025849
:205340007C4402580020025800240258002802588C4402582946204600F046BA01484068D9
:20536000704700BF8C5A0020B3BBD9B1B2F5803F7DD2022A1ED98C46B1FBF2F102FB11C3AF
:205380001B0443EA1043B3FBF2FC02FB1C3380B240EA0343B3FBF2F002FB103240EA0C409F
:2053A00000237047022A05D98446B0FBF2F002FB10C270474AB105D100F0010249085FEACE
:2053C0003000704700220023704702F069BD0B000200002100207047904271EB030CF6D3C7
:2053E000B3F5803F2FD2F0B5B3FA83F7B1FA81F4A7F10F0E3D1B5340CEF1200602FA0EF2D8
:20540000F3415340B5F10F0746D80F3C2C444140C4F12006A040F1414140B1FBF3F603FBAE
:205420001611A2FB0645001BA94102D2761E8018594180EA010221FA0EF362FA0EF20021B8
:205440005A403046F0BD30B4B1FBF3FC03FB1C11A2FB0C45001BA94103D2ACF1010C8018DB
:20546000594130BC02460B46604600217047B2F1807F65D3F0B5B2FA82F7B1FA81F4C7F113
:205480000F063D1B22FA06F307F1110EF24120355A40B5F10F07B8D94140C4F12006A040C8
:2054A000F1414140B1FBF3FC03FB1C11A2FB0C45001BA94103D2BCF1010C801859410F2F81
:2054C00012D30F3FC90341EA5041B1FBF3F603FB1611A2FB0645D4EBC030A94102D2761E6E
:2054E0008018594146EACC3C07B34140C7F12006B840F1414140B1FBF3F603FB1611A2FB27
:205500000645001BA94102D2761E8018594180EA010221FA0EF3C7F1200462FA0EF20CFADA
:2055200007F05A402CFA04F13043F0BD80EA010221FA0EF3002162FA0EF260465A40F0BDAC
:205540008C46B1FBF2F102FB11C31B0243EA1063B3FBF2FC02FB1C331B024CEA002043EAD4
:205560001063B3FBF2FC02FB1C331B024CEA002043EA1063B3FBF2FC02FB1C331B024CEA82
:20558000002043EA1063B3FBF2FC02FB1C324CEA002000237047F0B40246106895681318A8
:2055A000506803EB5004C00721D54D441FE0F0BC02F10C00704713F8017B05F8017B491EDB
:2055C000F9D1A0B1B60813F8011B06F00306032E08BF13F8016B01EB06214942801C2944B6
:2055E00005D011F8016B05F8016B401EF9D1A342DDD013F8016B16F0030104BF13F8011BD3
:20560000C91C30090F28DAD113F8010B0F30D6E72DE9F84F4FF0000E4FF0B042DFF808338A
:20562000DFF808834FF00F0982460F4633E0C04EB24514BF0A2609268E402E4344F82C6043
:205640001C68C14301EA040C7C68E50348BF40EA0C0CC3F800C05C6801EA040C7C68A503EC
:2056600048BF40EA0C0CC3F804C0146801EA040C7C68E50248BF40EA0C0CC2F800C05468A1
:2056800001EA040C79688C0248BF40EA0C0CC2F804C00EF1010E396831FA0EF000F0A280EF
:2056A000012000FA0EFC1CEA0100F2D07C684FEA8E01022C18BF122C10D14FEADE0401F020
:2056C0001C050AEB840409FA05FB266A26EA0B06D7F810B00BFA05F535432562DAF80060B9
:2056E00097F804B04FEA4E040325A540ED432E400BF0030B0BFA04FB4BEA0606CAF80060C1
:205700007E68012E18BF022E03D0112E18BF122E17D1DAF80860D7F80CB02E400BFA04FB25
:205720004BEA0606CAF80860DAF8046026EA0C0C7E68C6F3001606FA0EF646EA0C06CAF8E3
:205740000460DAF80C603540BE6806FA04F42C43CAF80C407C68E4009BD5D8F800404FEA16
:205760009E0C01F00C0144F00204C8F80040D8F8005005F002050095009C09FA01F56D4C48
:2057800054F82C6026EA05056B4EB24508BF002627D06A4EB24508BF012622D0684EB24547
:2057A00008BF02261DD0674EB24508BF032618D0654EB24508BF042613D0644EB24508BF9B
:2057C00005260ED0624EB24508BF062609D0614EB24508BF072604D05F4EB2457FF427AFF2
:2057E000082629E7BDE8F18F2DE9F84F8B4600274FF0B0414C4A0F23DFF8389105463BE0F3
:205800004B4EB54214BF0A26092606FA0EF6B24512D159F82460C04326EA080649F824602D
:205820001468044014605468044054600C6804400C604C68204048600324780004FA00F013
:205840002C680443C0432C60FC0805EB8406BC0004F01C0403FA04F4D6F8208028EA040413
:205860003462AC680440AC606C6824EA0C046C60EC682040E8607F1C3BFA07F03DD001207F
:2058800000FA07FC1CEA0B00F5D0BC084FEAC70E59F824600EF0180E03FA0EF808EA060A65
:2058A000254EB54208BF0026AFD0244EB54208BF0126AAD0224EB54208BF0226A5D0214E07
:2058C000B54208BF0326A0D01F4EB54208BF04269BD01E4EB54208BF052696D01C4EB54295
:2058E00008BF062691D01B4EB54208BF07268CD0194EB54284D1082687E7BDE8F18F81B0FF
:2059000002B9090405E081B042690A408A4208BF0904816101B07047104A136803421CBFD5
:20592000106002F00CBD704780000058F44402580024025808040058000002580004025881
:2059400000080258000C0258001002580014025800180258001C0258002002588800005865
:2059600038B5040001D1012032BD00F083F820B900212046297000F0BFFA2421697000F039
:205980005AF86068226820F0706010612068816821F400418160E068012805D1A168226890
:2059A00041F40041916004E0A068216840F404408860E268022A03D121684FF4006048608D
:2059C0002068426842F0007242F4004242602068C16821F40041C16022696069216802438D
:2059E000A06942EA0022CA60E269206A0243206802602068016841F00101016000206860B5
:205A00002020687000202063A87032BD38B5040001D1012032BD04F140052420687000F0AB
:205A20000AF8204602F01EFE0020686068702063A870287032BD2068016849084900016022
:205A40007047CDF800903B4600228021304600F09EB94B68034020204B6060700020A07058
:205A600020707047728D4FF000733285D2B200907047044604F14005687870472DE9FE4F2E
:205A800000F0FBF852D10C9D002D1CBF0D9F002F03D14FF40070606041E02078012845D036
:205AA00001212170FFF75AFC00F05BF8002836D1212000F0EBF800F00CF910B100202070FB
:205AC0002DE0708DFF25B0F5807F19D300F0EFF800F043F80E9F4A463946304600F078F973
:205AE00000281CD100F029F813D089B289B9FFF7A8FFA0B900F01DF807D300F0D8F806E0A5
:205B0000728D0020FFF7AFFFE2E700F034F800F024F8708D0028DED100F099F808B10120A2
:205B200005E000F099F8FFF794FF00E00220BDE8FE8F708DB0F5807F7047706A32680178FD
:205B40009162716A481C7062708D421E7285318D491E3185708D002870474146304600F049
:205B6000B3B981461923CDF8009001224FF40041304600F00CB9728D00214FF00073328506
:205B8000D2B2009170472DE9FE4F00F076F85BD10C9D002D1CBF0D9F002F03D14FF4007039
:205BA00060604AE0207801284ED001212170FFF7D5FBFFF7D6FF00283FD1222000F066F810
:205BC00000F0A4F810B10020207036E0718DFF25DFF8EC00B1F5807F22D335854FF0807347
:205BE0000090FF22FFF7B9FF0E9FCDF800903B4600220421FFF72AFF00281ED13068416A03
:205C0000726A117000F02EF888B189B279B9FFF718FF90B9FFF78DFF05D300F048F804E0A7
:205C2000FFF720FFDEE7FFF7A6FFFFF796FF708D0028DAD100F00BF808B1012005E000F0F2
:205C40000BF8FFF706FF00E00220BDE8FE8F4A463946304600F0E3B8326820211748D16196
:205C600031687047706A411C7162318D491E3185728D501E7085708D7047064606F1400452
:205C80006078884692469B46202870475B4660704020A070002060605246756241467785F3
:205CA00070630E9800903046CDF8049070473585002100914FF08073FF22704700E800FEF9
:205CC000002400803146204600F0FEB890F8410070472DE9FC4100F035F84FF08073EAB2DF
:205CE000FFF7F1FF324600F03FF860B9012D02D000F036F838B92068FFB243460022802172
:205D000000F02AF800B10120BDE8F6812DE9FC4100F018F80023EAB2FFF7D5FF324600F03F
:205D200023F860B9012D02D000F01AF838B92068FFB243460022402100F00EF800B101202F
:205D4000BDE8F6810446DFF8A40117461D460090DDF82080099E704787622046009616E063
:205D60002168380A324688624146204630E081B0006881698A0744BF002282628169CA0721
:205D800003D4826942F00102826101B070472DE9F04105460E4690461C46069F2868816984
:205DA0003140B1420CBF0120002040450DD114F1010FF3D0FFF7D2FAC01B844201D3002CD5
:205DC000ECD100F020F8012000E00020BDE8F08170B505460C461646286881698A0710D4BA
:205DE00000F035F858B914F1010FF5D0FFF7B6FA801B844201D3002CEED100F004F80120C8
:205E000070BD002070BD05F140002022416841F0200141604270002282700270704770B5E0
:205E200005460C461646286881698A060DD400F00EF840B9FFF792FA801B844201D3002CAC
:205E4000F1D1FFF7E0FF012070BD002070BD324621462846FFE770B505460C46286816462F
:205E60008169CA0618D528688269910616D414F1010FF8D0FFF772FA801B844201D3002CDF
:205E8000F1D105F14000416841F0200141602022FFF7C0FF012070BD002070BD1021C16189
:205EA00029682020C8612846FFF761FF2968104800F004F8416841F00401E7E74A680240AE
:205EC00005F140004A60704770B50068049C094EC1F3090146EA54564568B543294341EAD3
:205EE000024119432143416070BD00000020008000E800FEFF63FF037047000001460020C9
:205F0000842918BFC81C704780B502F0E6FC002002BDEFF30580002818BF02F05BBD02F018
:205F200055BD3EB504460D46B4F90800FFF7E6FF02A9009001912269216860682B4692B2D1
:205F400002F092FB012801D000203EBD02983EBD02F09FBE80B500B9012002F085FC002027
:205F600002BD012003F05BB880B50022009208B9802002BD11F1010F08BF4FF0FF3200F0F9
:205F80006AF859B16A46002103F0D2FA01280AD1009808B100F083F8002002BD114603F01C
:205FA00023FA0128F8D0FF2002BD1CB500F071F849B1694603F04AF901280CD1009840B15D
:205FC00000F06DF805E0002303F061F8012818BFFF24204616BDFF2016BD80B5EFF305812D
:205FE00009B1822002BD64E0012910B50DD103220021012002F0E8FF040004D00023002218
:020000040800F2
:20600000002103F044F8204610BD0846BDE8104003F021B880B50022009208B9802002BDE5
:2060200011F1010F08BF4FF0FF3200F014F859B16A46002103F07CFA01280AD1009808B182
:2060400000F02DF8002002BD114603F0CDF90128F8D0FF2002BD01D001B10A46EFF3058132
:2060600070471CB500F015F849B1694603F0EEF801280CD1009840B100F011F805E0002389
:2060800003F005F8012818BFFF24204616BDFF2016BD002200240092EFF3058170474FF08C
:2060A0008051DFF800211160BFF34F8FBFF36F8F704703F081FA002002BD4168006800222F
:2060C00002F082BF03B581B00021009102B90122EFF3058149B100F047F801280BD10098E6
:2060E00008B1FFF7DCFF00200EBD002302A902F0CEFF0128F7D0FF200EBD38B5054684B058
:20610000084600210290019110B900F038F829E0002412F1010F039108BF4FF0FF3400F006
:2061200028F851B103AA01A903F002FA012807BF102000900022009208E0224601A903F0A7
:20614000D2F8012807D11021009109E0039838B1FFF7A5FF04E0002C0CBF002040200090C0
:2061600000F022F805B030BD00236A4602A903F028B801D002B11446EFF305817047802085
:206180006946009091E81C0085E81C00704780B502F083FD012803D0BDE8014003F052BB62
:2061A00001BD000004ED00E0684690E80E0085E80E00704780B5EFF3058109B1822002BD32
:2061C00077E700007CB50446FFF7C8F806460CB9012076BD04F140052978012901D10220D2
:2061E00076BD01202870687838B900212046297000F09DFA41F28831A960206833460168DC
:20620000A26821F47061521E41EA02210022016000F0C6F9010024D12268DFF85C1213685E
:2062200066680B40E16843EA06630B43E1690B43216A0B43DFF84412136022685368266933
:206240000B40616943EA06430B43A1690B43536021680A6842F001020A60002169600121B4
:2062600069700021297076BD10B508B9012010BD00F140042178012901D1022010BD012208
:20628000227001680A68520852000A6003F03AFB002060606070207010BD2DE9F8430446AB
:2062A0000E46154604F14007FFF758F880463878012808BF022026D0012139707978012949
:2062C0001CD1002043467860022078700022009500F068F9814698B900F017F8706A50B944
:2062E000009543460122022100F05DF9814638B921680220C8600120787001E04FF0020935
:20630000002038704846BDE8F28300223146204600F070B92DE9FC41074607F140060C46C5
:206320001546FFF71BF839688046327801F12000012A08BF022041D0012333707378012BD3
:2063400039D10022726084B3122272700A69521CFA620B695B1CBB627C624A69044622F0C0
:2063600040624A610FE001220421384600F01DF9010017D1786A01782170796A4A1C7A621B
:20638000FA6A521EFA62F86A009543460028EAD101220221384600F008F9010002D13A683F
:2063A0000221D1600121717006E0706840F008007060012000E0022000213170BDE8F681BF
:2063C0002DE9F84306460C46914606F14007FEF7C5FF316880468A693878012801F12005BE
:2063E00008BF022045D001233B707B78012B3DD100207860A4B3222078700B695B1CB36329
:206400000869401C706334634B6923F0406343F080634B6131688A610FE0012206213046E6
:2064200000F0C3F8010018D12878316B0870306B411C3163B16B491EB163B06BCDF8009080
:2064400043460028E9D101220221304600F0ADF8010002D132680221D1600121797006E0CD
:20646000786840F008007860012000E0022000213970BDE8F28300002FFFFF00FEF8E0FF23
:206480002DE9F8430446894615461F46FEF766FF804604F140063078012808BF022038D0B5
:2064A00000F039F832D1002043467060422070700022009700F076F8010028D121682868D3
:2064C00088622268686850622168A868C86221680A68286922F44002024342F480020A60B8
:2064E000E968C9F828104FF000624946FFF70FFF009743460122082100F055F8010006D19D
:2065000022680821D1600121717000E0022000213170BDE8F2830121317071780129704729
:206520002DE9FC4104468846174604F14006FEF715FF03463078012808BF02202AD0FFF75C
:20654000EAFF23D100200022706082207070B06800F027F80546D0B921680A68786822F0E2
:20656000080202430A607868082809D12268396811632068102100F00FF841F48011016002
:206580004FF040624146FFF7C2FE00E00225002030702846BDE8F681C160206801687047C3
:2065A000A868009020212046FFE72DE9F04105460E4690461F46069C2868816816EA010071
:2065C00018BF0120404512D014F1010FF4D0FEF7C5FEC01B844201D3002CEDD1042085F8CB
:2065E0004100686C40F001006864012000E00020BDE8F081F8B54B6A002B18BFB2F1406F9C
:2066000003D08C6A0368641E1C618C69002C42D00B6A066813B38C68F461CD6A0B6B4C69C0
:206620008F69D1F800C01D434B6B1D434B6A1D430B6945EA84451D430B6A1D43CB6943B185
:20664000CC6825431D433D434CEA0505154375613DE03D434CEA05052A431AE0CF6A0B6B5D
:20666000D1F800C01F434B6B1F434B6A1F434B6947EA8347CB6943B1CD682F431F433C43A1
:206680004CEA04041443746121E03C434CEA040422437261F1BD0B6A0BB305688C68EC610B
:2066A000CE6A0B6B4C698F691E434B6B1E434B6A1E430B6946EA84461E430B6A1E43CB6918
:2066C0004BB1CC6826431E433E4316436E61B2F1406F19D1F1BD3E4332436A61F1BDCB698A
:2066E000B3B1CD6A0C6B4E6925434C6B25434C6A2543CC6845EA864525432B430468134366
:20670000B2F1406F636111D0006849688161F1BD4B6A5BB1CD6A0C6B006825434C6B496931
:2067200025432B4343EA81431A434261F1BD70472DE9F04F95B00FF20054824690461F463B
:206740001E98974ED4E9002304918DF83700CDE9002300200FF2E8410A9014914FF0FF3598
:2067600013E0C3464C461BF8011B0498D0470028049000F000810A98401C641E0A90F2D19F
:2067800002E0EED54FF00109C84498F80000252804D100210791089109910CE06A46294656
:2067A000404603F0DDF88146B9F1000FE9D10A98F8E041F0010118F8010F2028F9D0232828
:2067C0000CD02B2804D02D2805D0302809D0D4E041F00201EFE741F00401ECE741F008015A
:2067E000E9E741F01001E6E700200C900AE00C98B04205DA00EB800302EB4302303A0C92F7
:2068000008F1010898F80020A2F130000A28EED398F800002E2818BF0B9526D118F8010F9C
:206820002A2808D13868386008F1010850F8042B38600B9219E02D280CBF18F8010B0020F2
:2068400000220B920BE040B90B9AB24205DA02EB820403EB4403303B0B9308F1010898F8DA
:206860000030A3F130020A2AEDD3ADF83410149898F8001003F078F808B118F8010B8DF83C
:2068800036009DF83600682804BF98F80010682904D162208DF8360008F101080EA8069013
:2068A0003A4618F8013B03A9504600F0A9F8002861D10C980799099A401A0899801AA0EBD8
:2068C00001099DF83400410710D42021B9F1000F8DF808100ADD4C46012302AA03A9504697
:2068E00000F093F9002846D1641EF5D1079C0DF1380B5CB11BF8011B0498D0470028049006
:2069000039D00A98401C641E0A90F3D1099C3020002C8DF8080008DD012302AA03A95046EB
